:020000040800F2
:10000000F01E0020C10100083D750008E95A0008F3
:1000100045700008010D0008DD9300080000000095
:10002000000000000000000000000000F17D00085A
:100030001F1E000800000000917A000817820008C7
:10004000DB010008DB010008DB010008DB01000820
:10005000DB010008DB010008DB010008DB01000810
:10006000DB010008DB010008DB010008DB01000800
:10007000DD1B0008DB010008DB010008ED1B0008A8
:10008000FD1B0008DB010008DB010008DB010008A4
:10009000390D0008DB010008DB010008DB01000866
:1000A000DB010008DB010008DB010008DB010008C0
:1000B000DB010008DB010008DB010008DB010008B0
:1000C000DB010008DB010008DB010008DB010008A0
:1000D000DB010008658D00087D8D00088D8D00080E
:1000E000DB010008DB010008DB010008DB01000880
:1000F000DB010008DB010008DB010008DB01000870
:10010000DB010008DB010008DB010008DB0100085F
:10011000DB010008DB0100089D830008DB0100080B
:10012000DB0100080D1C00081D1C0008DB01000895
:10013000DB010008DB010008DB010008DB0100082F
:10014000DB010008490D0008DB010008DB010008A5
:10015000DB010008DB010008DB010008A58D0008B9
:10016000DB010008DB010008DB010008DB010008FF
:10017000DB010008DB010008DB01000800000000D3
:10018000DB010008DB010008DB010008DB010008DF
:10019000DB010008DB010008DB010008DB010008CF
:1001A0000000000000000000DB010008DFF80CD0B8
:1001B00000F088FB004800473D9E0008F01E00202C
:1001C0000648804706480047FEE7FEE7FEE7FEE7F1
:1001D000FEE7FEE7FEE7FEE7FEE7FEE7D582000862
:1001E000AD0100082DE9F05F0546002092469B46D0
:1001F00088460646814640241BE02846414647463D
:10020000224600F0A8FA53465A46C01A914110D32C
:1002100011461846224600F08FFA2D1A67EB0108A6
:100220004F4622460120002100F086FA17EB000914
:100230004E41201EA4F10104DFDC484631462A4627
:100240004346BDE8F09F2DE9F0410024061B2546FA
:1002500071F1000605DA01240027D0EB070067EBF7
:100260000101161E73F1000605DA0027D2EB070222
:10027000012567EB0303FFF7B5FF86460E461746D9
:100280009C46AC4204D00025D0EB050E65EB010680
:1002900024B10020D2EB000760EB030C704631461E
:1002A0003A466346BDE8F08140EA01039B0703D06C
:1002B00009E008C9121F08C0042AFAD203E011F8A5
:1002C000013B00F8013B521EF9D27047D2B201E067
:1002D00000F8012B491EFBD270470022F6E710B54B
:1002E00013460A4604461946FFF7F0FF204610BDA4
:1002F0002DE9FE4F804681EA0300C00F0C460090B6
:1003000021F0004123F00045B8EB0200A94105D2DD
:100310004046214690461C460B46024623F00040CC
:10032000104347D0270DC7F30A00C3F30A510290C8
:10033000401A019040286BDAC3F3130040F4801B8D
:100340000098924620B10023D2EB030A63EB0B0B1B
:1003500001985946C0F14002504600F0EDF90646BA
:100360000D4650465946019A00F005FA10EB080078
:100370006141002487EA115284EAE7731A4340D0AE
:10038000009A62B3019A012A4FEA075215DC001B5A
:1003900061EB02014FF0004202EA0752CDE9004250
:1003A000001C41F5801132462B4600F03CFA03B0A8
:1003B000BDE8F08F40462146F9E7001B61EB0201E2
:1003C000001C41F5801300185B412018A2F50017AE
:1003D00047EB030140EAD570B6196D4111E06D0895
:1003E0004FEA360645EAC0754FEA0752001B61EB3B
:1003F0000201001C41F5801149084FEA3000001944
:10040000514132462B4603B0BDE8F04F00F0FCB935
:100410000098012240000023D0EB020263EBE0735E
:10042000009821464FEAE074B8EB000061EB04014C
:10043000E9E783F000435BE781F0004158E72DE9ED
:10044000FE4F81EA030404F0004421F000410094CF
:100450004FF0000B23F0004350EA01045ED052EA53
:1004600003045BD0C3F30A54C1F30A552C44A4F22D
:10047000F3340194A0FB0254C1F3130141F4801141
:10048000C3F3130343F4801301FB024400FB034E48
:10049000840A970A44EA815447EA8357A4FB076811
:1004A00002958D0A05FB07854FEA932C04FB0C543B
:1004B0002705029D4FEA065847EA1637B5EB0805AF
:1004C0006EEB070C870E920E47EA811742EA831201
:1004D000A7FB0201B6EB0B0164EB00042B0D43EA12
:1004E0000C335E1844EB1C50DA465146E7FB020120
:1004F000C5F313044FEA0B3343EA14534FEA0432B3
:10050000019C43EA0603A4F10C040294009CCDE98B
:1005100000B400F088F903B0BDE8F08F0020014678
:10052000F9E72DE9F04D81EA030404F0004B21F0D6
:10053000004514464FF0000A23F0004150EA05023E
:1005400020D054EA01021DD0C5F30A570246C5F374
:100550001303C1F31300C1F30A5640F4801543F4AA
:100560008013A7EB0608101BD64608F2FD3873EB84
:10057000050002D308F1010801E092185B41B8F1CF
:10058000000F03DA00200146BDE8F08D00204FF493
:100590008011064684460EE0171B73EB050705D352
:1005A000121B63EB050306434CEA010C49084FEAB2
:1005B000300092185B4150EA0107EDD152EA030086
:1005C00012D082EA040083EA0501084305D0101B1B
:1005D000AB4106D20122002306E000224FF0004387
:1005E00002E06FF0010253101AEB06004CEB0851C9
:1005F00010EB0A0041EB0B01BDE8F04D00F004B92F
:100600000EB5C10F80EAE0700844CA07002140F22D
:1006100033438DE80E000A460B4600F004F903B0A0
:1006200000BD0EB540F2334102910021CDE9001129
:100630000A460B4600F0F7F803B000BD70B5C1F3F1
:100640000A5201F000450024C1F3130140F2FF33C8
:1006500041F480119A4201DA002070BD40F2334328
:100660009A42A2F2334203DC524200F074F800E0F6
:1006700090402C43F1D0404270BD00F0004230F079
:1006800000400AD0C10D01F56071C0F3160042EAC6
:100690000151C208400711437047002001467047CE
:1006A00030B5041E71F1000404DB4FF000444042F9
:1006B00064EB0101141E73F1000405DB1C464FF0CE
:1006C0000043524263EB04038B4208BF824230BDB9
:1006D00030B5041E71F1000404DB4FF000444042C9
:1006E00064EB0101141E73F1000405DB1C464FF09E
:1006F0000043524263EB0403994208BF904230BD6D
:1007000001F0004330B421F0004150EA010206D06C
:100710000A0DA2F56072C1F31301002A02DC30BC9D
:1007200000207047440F44EAC104C100E01830BC07
:1007300000EBC25000F031B8202A04DB203A00FA66
:1007400002F1002070479140C2F1200320FA03F328
:10075000194390407047202A04DB203A21FA02F026
:100760000021704721FA02F3D040C2F120029140EB
:10077000084319467047202A06DBCB17203A41FA76
:1007800002F043EAE07306E041FA02F3D040C2F11E
:10079000200291400843194670470029A8BF7047BE
:1007A000401C490008BF20F00100704710B4B0FAA7
:1007B00080FC00FA0CF050EA010404BF10BC704742
:1007C00049B1CCF1200421FA04F411FA0CF118BF5C
:1007D000012121430843A3EB0C01CB1D4FEA00612B
:1007E0004FEA102042BF002010BC704700EBC350FE
:1007F00010440029A4BF10BC7047401C490008BF2A
:1008000020F0010010BC704710B5141E73F10004F5
:1008100008DA401C41F1000192185B411A4301D1F2
:1008200020F0010010BD2DE9F04D92469B4611B11C
:10083000B1FA81F202E0B0FA80F220329046FFF77E
:100840007BFF04460F4640EA0A0041EA0B0153468B
:100850005A46084313D0114653EA010019D0C8F193
:1008600040025046FFF777FF05460E465046594670
:100870004246FFF761FF084305D0012004E020460F
:100880003946BDE8F08D0020054346EAE0762C436A
:1008900037430A986305E40AA0EB08000022FD0A2A
:1008A00044EA47540A3002D500200146E9E7010531
:1008B00010196941DDE9084500196941BDE8F04DAD
:1008C000A2E70000064C074D06E0E06840F0010397
:1008D00094E8070098471034AC42F6D3FFF76AFC5F
:1008E00088A00008A8A0000870B58C1810F8015B5B
:1008F00015F0070301D110F8013B2A1106D110F8B9
:10090000012B03E010F8016B01F8016B5B1EF9D1BC
:100910002B0705D40023521E0DD401F8013BFAE742
:1009200010F8013BCB1A921C03E013F8015B01F8AD
:10093000015B521EF9D5A142D8D3002070BD000042
:1009400010B52DED048B6A480068401C68490860AA
:100950006848C07EF0BB6849B1F90C00FFF750FE53
:1009600041EC190B9FED650B53EC102BFFF767FD66
:1009700041EC180BFFF7C4FE00EE100A5D48D0ED05
:10098000020A30EEC00A80ED020A5E4890ED000ACD
:10099000DFED5D0AB4EEE00AF1EE10FA08D390ED57
:1009A000000ADFED5A0AB4EEE00AF1EE10FA59DD62
:1009B000504890ED030A5048B0F90A0000EE900A42
:1009C000F8EEE00A9FED521A00EE810A494880EDE8
:1009D000030A47E0FFE74849B1F90C00FFF710FEB2
:1009E00041EC190B9FED4B0B53EC102BFFF727FD40
:1009F00041EC180BFFF784FE00EE100A3D48D0EDE5
:100A0000020A30EEC00A80ED020A3E4890ED000A6C
:100A1000DFED3D0AB4EEE00AF1EE10FA08D390EDF6
:100A2000000ADFED3A0AB4EEE00AF1EE10FA19DD41
:100A30003149B1F90A00FFF7E3FD41EC190B9FEDD5
:100A4000350B53EC102BFFF7FAFC41EC180BFFF7BA
:100A500057FE00EE100A2748D0ED030A30EE200AB8
:100A600080ED030A234890F8240010B900202B4998
:100A70000860204890F8240040B91E48807E10B1DC
:100A80001C48C07E10B90120244908602348006832
:100A9000012801D100F086F8164890F8220050B9DC
:100AA0001F48006838B9124800681E4908600120D4
:100AB0001B49086018E01A480068012811D10C4849
:100AC000006818490968401AB0F52F7F09D809480D
:100AD00090ED030ADFED140A30EE600A80ED030AA0
:100AE00002E000200E490860BDEC048B10BD000040
:100AF00090000020780C0020200D0020FCA9F1D2ED
:100B00004D62403FA00000200000A0420000A0C2B3
:100B10006F12833A613255302AA9533F9C0000205E
:100B20009800002094000020CDCCCC3E104890EDE1
:100B3000020A1048B0F9060000EE900AF8EEE00A4A
:100B40009FED0D1A00EEC10A094880ED020A90EDF2
:100B5000030A0848B0F9040000EE900AF8EEE00A33
:100B60009FED061A00EE810A014880ED030A7047E6
:100B7000780C0020200D00200AD7A33B17B751396D
:100B800010B50748407A012802D1FFF7CFFF05E0F2
:100B90000348407A032801D1FFF7D2FE10BD0000C0
:100BA000200D002010B52DED088B2648D0ED000A51
:100BB000B0EE600A00F0A6F8224880ED000AD0ED01
:100BC000010AB0EE600A00F09DF81E4880ED010AAF
:100BD0001D48007898BB1B4890ED000A10EE101AD3
:100BE0000846FFF74AFD41EC1B0B9FED180B53EC39
:100BF000102BFFF796FC41EC190B164890ED000AFC
:100C000010EE100AFFF739FD41EC1A0B53EC192BCB
:100C1000FFF76EFB41EC180BFFF772FD0E49C86041
:100C2000084890ED010AF0EE080A80EE201A0B4801
:100C300090ED100A31EE000A084680ED020ABDEC84
:100C4000088B10BD7C1A0020040200209A99999903
:100C50009999F93FA0000020780C00207C0F00201B
:100C600010B50021034804F0D1FB152007F064FA09
:100C700010BD00004004002010B59FED137B9FEDD8
:100C8000146B9FED135B9FED104B9FED113B9FEDA0
:100C9000102B9FED111B9FED120B134806F0CAFE9F
:100CA0009FED097B9FED0A6B9FED095B9FED064B66
:100CB0009FED073B9FED062B9FED071B9FED080B5C
:100CC0000A4806F0B7FE10BD000000000040CF400B
:100CD0000000000000000000000000000000E03FF5
:100CE0000000000000002040D8130020581400200D
:100CF00070B504460D462946204601F011F970BD35
:100D000000BFFEE7F0EE400ADFED091AB0EE611A0F
:100D1000DFED081AB0EE610A61EE201AB7EE002A84
:100D200032EE412A42EE001AB0EE610A704700002E
:100D30001F856B3F0000000010B5024801F030FF36
:100D400010BD0000B804002010B5024801F028FFD3
:100D500010BD0000E00400202DE9F04788B0814676
:100D60000E4614461D46DDE91078002000900190E3
:100D70004FF0060A05900490029608200690200A7B
:100D80008DF80000E0B28DF80100280A8DF802000D
:100D9000E8B28DF80300380A8DF80400F8B28DF837
:100DA00005004FEA18208DF8060008F0FF008DF8C6
:100DB000070001E009F098F8484601F0D4FE30B988
:100DC000BAF10000AAF1010101F0FF0AF2D10123FA
:100DD0006A4602A9484601F0D9FC08B0BDE8F08790
:100DE0002DE9F0432DED0A8B83B000BF00BF00BF9B
:100DF000FE480068401CFD4908600846006847F24C
:100E0000305190FBF1F201FB1200F849086000F04C
:100E1000A5FD07F017F8F6480068FFF7F1FB41EC75
:100E20001A0BF44890ED000B53EC102B51EC1A0BFD
:100E3000FFF705FBEF4A03C2EE4890ED001BEE48BA
:100E400090ED000BED4806F009FCED48807C03288E
:100E500007D10020E64908609FEDEA0BE64880EDE7
:100E6000000B9FEDEA0B53EC102BE34890ED000BC9
:100E700051EC100BFFF7E3FA41EC1B0BB0EE4B0A01
:100E8000F0EE6B0A08F0C4FAB0EE40AAF0EE60AAE9
:100E900051EC1A0BFFF734FC08EE100A9FEDDB0B48
:100EA00053EC102BD44890ED000B51EC100BFFF7D6
:100EB000C6FA41EC1B0BB0EE4B0AF0EE6B0A08F0E1
:100EC0000BFBB0EE40AAF0EE60AA51EC1A0BFFF754
:100ED00017FC08EE900ACF4890ED000AB8EEC00A61
:100EE00020EE080ABDEEC00A10EE104A006840422B
:100EF00000EE100AB8EEC00A20EE280ABDEEC00AC5
:100F000010EE105AC44890ED000AB8EEC00A20EE68
:100F1000080ABDEEC00A10EE100A0544BE4890ED66
:100F2000000AB8EEC00A20EE280ABDEEC00A10EE94
:100F3000100A0444AE480068FFF762FB41EC1B0B4B
:100F4000AE4890ED101BB0EE410AF0EE610A9FED45
:100F5000B31B53EC112B51EC100BFFF770FA53EC51
:100F60001B2BFFF76CFAFFF769FB6942091BC1EB0A
:100F7000C1010844AB4909684FF47A7202FB0100D1
:100F8000A94908609A480068FFF73AFB41EC1B0B3F
:100F90009A4890ED101BB0EE410AF0EE610A9FED09
:100FA0009F1B53EC112B51EC100BFFF748FA53EC3D
:100FB0001B2BFFF744FAFFF741FB40F26311484354
:100FC00040F2271190FBF1F069422144C1EBC101CD
:100FD0000844944909684FF47A7202FB010093496E
:100FE000086083480068FFF70BFB41EC1B0B83484C
:100FF00090ED101BB0EE410AF0EE610A9FED871BE9
:1010000053EC112B51EC100BFFF719FA53EC1B2B7F
:10101000FFF715FAFFF712FB40F26311484340F265
:10102000271190FBF1F02919C1EBC10108447D495A
:1010300009684FF47A7202FB01007D4908606C4830
:101040000068FFF7DDFA41EC1B0B6C4890ED101BBC
:10105000B0EE410AF0EE610A9FED701B53EC112BCC
:1010600051EC100BFFF7EBF953EC1B2BFFF7E7F9F3
:10107000FFF7E4FA291BC1EBC1010844694909687B
:101080004FF47A7202FB01006A4908606648006802
:10109000FFF7B6FA41EC1B0B67480068FFF7B0FAA0
:1010A00041EC1C0BB3EE042AB0EE4B1AF0EE6B1AB7
:1010B000B0EE4C0AF0EE6C0A00F03DFEB0EE40AA35
:1010C000F0EE60AA51EC1A0BFFF7B8FA5A49086023
:1010D00056480068FFF794FA41EC1B0B574800682C
:1010E000FFF78EFA41EC1C0BB3EE042AB0EE4B1A5C
:1010F000F0EE6B1AB0EE4C0AF0EE6C0A00F01BFE3C
:10110000B0EE40AAF0EE60AA51EC1A0BFFF796FA87
:101110004A49086046480068FFF772FA41EC1B0B29
:1011200047480068FFF76CFA41EC1C0BB3EE042A49
:10113000B0EE4B1AF0EE6B1AB0EE4C0AF0EE6C0A01
:1011400000F0F9FDB0EE40AAF0EE60AA51EC1A0BE7
:10115000FFF774FA3A49086036480068FFF750FA1A
:1011600041EC1B0B37480068FFF74AFA41EC1C0BB7
:10117000B3EE042AB0EE4B1AF0EE6B1AB0EE4C0A46
:10118000F0EE6C0A00F0D7FDB0EE40AAF0EE60AAD7
:1011900051EC1A0BFFF752FA2A49086026480068FA
:1011A000FFF72EFA41EC1A0B2749B1F90000FFF7BF
:1011B00027FA41EC1B0BB0EE4A1AF0EE6A1AB0EEB9
:1011C0004B0AF0EE6B0A214806F048FA1B4800680B
:1011D000FFF716FA41EC1A0B1D49B1F90000FFF7B1
:1011E0000FFA41EC1B0BB0EE4A1A33E00401002069
:1011F000C8000020B8000020B0000020101300201C
:10120000780C00200000000000000000000000201A
:1012100047DF913FC0000020C40000200000000014
:1012200000003040AC000020E0000020E40000207E
:10123000E8000020EC000020D0000020D4000020B6
:10124000D8000020DC0000208010002010110020B9
:10125000A4100020F0EE6A1AB0EE4B0AF0EE6B0A12
:10126000B64806F0FBF9B6480068FFF7C9F941EC4B
:101270001A0BB449B1F90000FFF7C2F941EC1B0B9E
:10128000B0EE4A1AF0EE6A1AB0EE4B0AF0EE6B0AB4
:10129000AD4806F0E3F9AD480068FFF7B1F941EC5D
:1012A0001A0BAB49B1F90000FFF7AAF941EC1B0B8F
:1012B000B0EE4A1AF0EE6A1AB0EE4B0AF0EE6B0A84
:1012C000A44806F0CBF9A44890ED109AA348007CFE
:1012D00002280CD1A248007848B9A248006818B981
:1012E0000120A049086002E000209E4908609D4856
:1012F000006830B99948C07F18B901209949086041
:1013000011E09848006870B19448007E40B193485D
:10131000C07D28B19148407E10B19048807D10B9C1
:101320000020904908608F480068E8B38A4890ED33
:10133000100AF1EE040AB4EEE00AF1EE10FA03DB53
:101340000120884908600DE0834890ED100AF9EE0D
:10135000040AB4EEE00AF1EE10FA03D84FF0FF30C1
:10136000804908607F480068C0EB0010400000EE34
:10137000100AB8EEC00A7C4880ED000A0068FFF74A
:101380007CF941EC1B0B79480068FFF776F941ECDA
:101390001C0B9FED772AB0EE4B1AF0EE6B1AB0EEF5
:1013A0004C0AF0EE6C0A00E00FE000F0C4FCB0EE76
:1013B00040AAF0EE60AA51EC1A0BFFF7A1F96B49B5
:1013C0000860084690ED009A1E246A49086800EB00
:1013D000D0714910A0EB410101290DD101F01CF998
:1013E00003280AD100200090034602464FF4007102
:1013F00001906148FFF7B0FC9BE001F00DF9E8BBFC
:10140000544890ED101BB0EE410AF0EE610A9FEDDA
:101410005B1B53EC112B51EC100BFFF782F841ECE6
:101420001A0BFFF70BF906B2474890ED101BB0EE10
:10143000410AF0EE610A9FED511B53EC112B51EC68
:10144000100BFFF76EF841EC1A0BFFF7F7F807B235
:101450003A4890ED101BB0EE410AF0EE610A9FEDA4
:10146000471B53EC112B51EC100BFFF75AF841ECD2
:101470001A0BFFF7E3F80FFA80F800E01EE041488E
:1014800090ED101BB0EE410AF0EE610A9FED3B1BA0
:1014900053EC112B51EC100BFFF743F841EC1A0BF6
:1014A000FFF7CCF80FFA80F943464A464FF4007133
:1014B0003148CDE90076FFF74FFC3AE0254890ED42
:1014C000101BB0EE410AF0EE610A51EC100BFFF771
:1014D000B5F806B21C4890ED101BB0EE410AF0EED4
:1014E000610A51EC100BFFF7A9F807B2134890ED11
:1014F000101BB0EE410AF0EE610A51EC100BFFF741
:101500009DF80FFA80F81F4890ED101BB0EE410ACD
:10151000F0EE610A51EC100BFFF790F80FFA80F92A
:1015200043464A464FF400711348CDE90076FFF771
:1015300013FC03B0BDEC0A8BBDE8F08390110020D2
:10154000D8000020C810002010120020DC0000206D
:10155000EC10002090120020380F0020780C0020A2
:101560004501002008010020100100201401002086
:101570009A99193F04010020E004002000000000B7
:10158000000000401011002010B58AB00446002071
:101590000690012007900020009001900290039097
:1015A000012008900E200990104884420AD10020A2
:1015B000049005906946204601F07EF902210B480F
:1015C00001F0CEF80A4884420BD1012004900E208D
:1015D00005906946204601F06FF91021044801F09A
:1015E000BFF8204601F043FE0AB010BDB804002049
:1015F000E004002070B52DED088B00240025AE48D6
:10160000807DC8B9AC48807E38B9AC480088401CA1
:10161000AA49088040F2DC5411E0A748C07E28B9EE
:101620004FF4FA740020A549088008E04FF4617473
:101630000020A249088002E00020A04908809E48BE
:10164000C07DF0B99C48807E68B99C480088401CE9
:101650009A49088008460088B0F57A7F01DA984CEC
:1016600012E0984C10E09448C07E28B9944CC834DD
:1016700000209249088007E0914C00208F490880A3
:1016800002E000208D4908808B48007E30BB8C4DE5
:101690008948C07D10B18848807DF8B92846FEF79A
:1016A000AFFF41EC1A0B9FED880B53EC102BFEF7AC
:1016B000C6FE41EC190BFEF7C1FF05462046FEF7BA
:1016C0009FFF41EC1A0B9FED800B53EC102BFEF7A4
:1016D000B6FE41EC190BFEF7B1FF04467648407E9A
:1016E00038BB4FF461757448C07D10B17248807D7D
:1016F000F8B92846FEF784FF41EC1A0B9FED720BF8
:1017000053EC102BFEF79BFE41EC190BFEF796FFF6
:1017100005462046FEF774FF41EC1A0B9FED6A0B5D
:1017200053EC102BFEF78BFE41EC190BFEF786FFF6
:101730000446674890ED000ADFED660AB4EEE00A61
:10174000F1EE10FA08D390ED000ADFED630AB4EE73
:10175000E00AF1EE10FA31DD5748007FA8B956488B
:1017600090ED030A10EE101A0846FEF786FF41ECD2
:101770001A0B9FED5A0B53EC102BFEF75AFE41EC5F
:10178000190BFEF7BDFF4C49C8604B48407FA8B914
:10179000494890ED030A10EE101A0846FEF76DFF57
:1017A00041EC1A0B9FED4D0B53EC102BFEF7A0FDF7
:1017B00041EC190BFEF7A4FF3F49C8603E48B0F961
:1017C0000200002803DD3C48B0F9020003E03A487B
:1017D000B0F902004042B0F5617F02DCB2EE008A4F
:1017E00001E0B0EE008A3448B0F90400002803DDBF
:1017F0003148B0F9040003E02F48B0F9040040423A
:10180000B0F5617F02DCF2EE008A01E0F0EE008AC2
:101810001CB9B2EE000AB0EE408A1DB9B2EE000A61
:10182000F0EE408A2046FEF7EBFE41EC1A0B22490F
:10183000B1F90200FEF7E4FE41EC1B0BB0EE482AC2
:10184000B0EE4A1AF0EE6A1AB0EE4B0AF0EE6B0AEE
:1018500000F071FAB0EE409AF0EE609A51EC190B7C
:10186000FEF7ECFE00B2144948802846FEF7C8FE99
:1018700041EC1A0B1049B1F90400FEF7C1FE41EC2E
:101880001B0BB0EE682AB0EE4A1AF0EE6A1AB0EE00
:101890004B0AF0EE6B0A00F04EFAB0EE409AF0EE12
:1018A000609A51EC190BFEF7C9FE00B2024988801C
:1018B000BDEC088B70BD0000780C002000010020FA
:1018C0007CFCFFFF24FAFFFF666666666666E63FFD
:1018D000A00000200000A0420000A0C27B14AE4780
:1018E000E17AB43F10B52DED048B01201649086054
:1018F0001649B1F90200FEF783FE41EC190B9FED8A
:10190000140B53EC102BFEF79AFD41EC180BFEF76D
:1019100095FE00B2104948800C49B1F90000FEF76D
:101920006FFE41EC190B9FED0A0B53EC102BFEF7E9
:1019300086FD41EC180BFEF781FE00B20649888057
:10194000BDEC048B10BD0000C8000020200D00205D
:101950009A9999999999F93F780C002010B5074800
:10196000407A012802D1FFF7BDFF05E00348407A25
:10197000032801D1FFF73EFE10BD0000200D00201E
:1019800030B504460D462946204606F021FC30BD00
:1019900010B514222249234806F0B2F900F046F8A7
:1019A00090B100F091FD70B9012008F023FA00F029
:1019B000F9F800F005F902E00A2001F0BBFE00F0A2
:1019C00083FD0028F8D010BD174815490860142081
:1019D00088800020C8800882C88108814881888169
:1019E0000846B0F90800B1F90A1008440C49B1F9E9
:1019F0000C1008440A49B1F9101008440849B1F91B
:101A00000E1008444FF6FB2190FBF1F201FB12008F
:101A100000B203494882084606F0ECFA00BFD2E75C
:101A20006810002000101108F3F2F1F91548006861
:101A3000154A904223D11348808814281FD1114899
:101A4000B0F908000F4AB2F90A2010440D4AB2F961
:101A50000C2010440B4AB2F910201044094AB2F984
:101A60000E2010444FF6FB2290FBF2F302FB130111
:101A70000448B0F91200884201D1012070470020CB
:101A8000FCE7000068100020F3F2F1F94348008AF7
:101A900008B9012000E00020414908753F48408A0C
:101AA00008B9012000E000203D4948753B48007D11
:101AB00000F0010080F0010088753848808A01211B
:101AC00021EA50003649C8753448808A012121EA4C
:101AD0009000334908763148808A012121EAD000FC
:101AE0002F4948762D48808A012121EA10102C497F
:101AF00088762A48808A012121EA50102849C87630
:101B00002648808A012121EA901025490877234838
:101B1000808A012121EAD010214948771F48808A14
:101B2000012121EA10201E4988771C48808A012162
:101B300021EA50201A49C8771848808A012121EAF1
:101B40009020174981F820001448808A012121EA59
:101B5000D020134981F821001048808A012121EA10
:101B600010300F4981F822000C48808A012121EAB7
:101B700050300B4981F823000848808A012121EA6E
:101B80009030074981F824000448808A012121EA25
:101B9000D030034981F8250070470000200D002057
:101BA000780C002010B50548C08820F002000349D9
:101BB000C880084606F01EFA10BD0000681000201C
:101BC00010B50548C08820F004000349C8800846C5
:101BD00006F010FA10BD00006810002010B5024891
:101BE00001F090FB10BD00004807002010B502482E
:101BF00001F088FB10BD0000A807002010B50248C6
:101C000001F080FB10BD0000E806002010B502487E
:101C100001F078FB10BD00000808002010B5024854
:101C200001F070FB10BD0000880600200146087816
:101C300010381823B0FBF3F20848805CC865032A0B
:101C400005D908686FF30900001D886503E008687E
:101C50006FF309008865886D70470000F89E0008E2
:101C6000014600208A6A8B69CBB932B1012A0DD0B6
:101C7000022A03D0032A10D10EE000BFCB6A03F082
:101C80008073B3F1807F00D1012007E0CB6AB3F10C
:101C9000C07F00D1012001E000E000BF34E08B698B
:101CA000B3F5005F1AD132B1012A07D0022A03D05E
:101CB000032A11D10AE000BF01200EE0CB6A03F035
:101CC0008073B3F1807F00D1012006E0CB6AB3F1CD
:101CD000C07F00D1012000E000BF15E032B1012A31
:101CE00005D0022A04D0032A0CD103E000BF00BFB4
:101CF000012008E0CB6A03F08073B3F1807F00D14C
:101D0000012000E000BF00BF704730B504682468C0
:101D100024F4802405682C60046863608468402C87
:101D200004D10468A2600468E16003E00468A16073
:101D30000468E26030BD10B52DED0A8BB0EE409A1C
:101D4000F0EE609AB0EE41AAF0EE61AAB0EE428ADF
:101D500018EE100AFEF791FC41EC1B0B53EC1A2B0A
:101D600051EC190BFEF765FB41EC1C0B53EC1B2BE4
:101D7000FEF7AEFC0CD818EE100AFEF77EFC41EC24
:101D80001B0B53EC192BFEF757FB41EC190B25E00D
:101D9000B1EE480A10EE100AFEF76FFC41EC1B0B87
:101DA00053EC1A2B51EC190BFEF743FB41EC1C0BC7
:101DB00053EC1B2BFEF774FC0CD818EE100AFEF740
:101DC0005CFC41EC1B0B53EC192BFEF791FA41EC38
:101DD000190B03E0B0EE4A9AF0EE6A9AB0EE490AA7
:101DE000F0EE690ABDEC0A8B10BD4A780B7842EA26
:101DF000032070474A780B7842EA03220280CA78AF
:101E00008B7842EA032242804A790B7942EA032224
:101E10008280CA798B7942EA0322C2807047704778
:101E200010B50A46002105E0535C303B384C44F8BD
:101E30002130491C0829F7DB3549C968344B9B69B7
:101E40001944344B1960194609680A2391FBF3F4CD
:101E500003FB14112F4B19602D49C9691B68994266
:101E600055D12C49096881B92949096800294ED101
:101E700029490968491C284B196019460968C8296D
:101E800045DD0121254B197041E00021234B1970DC
:101E9000204909680A2391FBF3F403FB14111D4B3D
:101EA00019601B49496819B94FF0FF31184B596047
:101EB0001749096919B94FF0FF31154B19611449D8
:101EC00091ED000AB8EEC00A80ED020AC968104B15
:101ED0009B6803EB830301EB43010D4B5B685943A4
:101EE00000EE101AB8EEC00A80ED000A08498969B0
:101EF000074B5B6903EB830301EB4301044B1B6955
:101F0000594300EE101AB8EEC00A80ED010A10BD68
:101F10005C1A0020000200200802002004020020B9
:101F200070B500220023046844604C780D7844EAC0
:101F30000524046004684568641BC460C4682B4DB4
:101F4000AC4207DA846B641C8463C46804F50054F3
:101F5000C4610EE0C46841F64C55AC4207DD846BA9
:101F6000641E8463C468A4F50054C46101E0C468BD
:101F7000C4610568846B05EB44348460046885693A
:101F8000641B00EE104AB8EEC00ADFED190A20EE1D
:101F9000200A9FED181AC0EE010A846B4FF4B47545
:101FA0006C4300EE104AB8EEC00A30EE800A80EDB5
:101FB000100AC669047D651C057500F1200545F809
:101FC0002460047D062C01D100240475002205E064
:101FD00000F1200454F822402344521C062AF7DB67
:101FE000062493FBF4F4C46370BD0000B4E2FFFF69
:101FF0000000B443000000467047000010B5002206
:1020000001B909E0012901D10A0205E0022901D143
:102010000A0201E04FF440720B2800D9001D0E4B5C
:102020001B6823F440730C4C236023461B68134346
:10203000236023461B6823F0F803236023461B68B4
:10204000022444EAC0042343034C236023461B6854
:1020500043F48033236010BD103C02401C480068EC
:1020600000F40070B0B11A48006820F400701849FC
:10207000086000BF0846006840F400600860084639
:10208000006820F40060086000BF0846006840F463
:10209000007008600E48006800F48060B0B10C4821
:1020A000006820F480600A49086000BF08460068A4
:1020B00040F4805008600846006820F480500860B2
:1020C00000BF0846006840F4806008607047000068
:1020D000003C0240134A126822F44072114B1A600D
:1020E000032906D11A461268DB131A430D4B1A60F6
:1020F0000EE0012906D10B4A126842F00402094B96
:102100001A6005E0074A126842F40042054B1A6063
:10211000044A12684FF4803343EA00231A43014B08
:102120001A607047103C0240074A126822F440725D
:10213000054B1A601A4612681A601A46126842F075
:1021400001021A6001707047103C024010B5094945
:10215000096821F44071074C21602146096841F467
:10216000407121602146096841F00101216002604F
:10217000436010BD103C0240084A126822F44072CD
:10218000064B1A601A46126842F480721A601A46A8
:10219000126842F001021A6001807047103C024050
:1021A000084A126822F44072064B1A601A461268F6
:1021B00042F400721A601A46126842F001021A6074
:1021C00001607047103C02402A48006800F010008F
:1021D00040B12948C06940F010002749C86110206B
:1021E000244908602348006800F0200040B12248DC
:1021F000C06940F008002049C86120201D490860DE
:102200001C48006800F0400040B11B48C06940F025
:1022100004001949C8614020164908601548006843
:1022200000F0800040B11448C06940F0020012493B
:10223000C86180200F4908600E48006800F4807073
:1022400048B10D48C06940F001000B49C8614FF426
:102250008070084908600748006800F0020040B13B
:102260000548C06940F020000349C86102200149C7
:10227000086070470C3C0240580C002070B50446C2
:10228000002500201449C86101F050FC054609E012
:10229000601C38B124B101F049FC401BA04201D9B7
:1022A000032070BD0D48006800F480300028EFD195
:1022B0000A48006800F0010010B1012007490860D9
:1022C0000648006800F4F97018B1FFF77DFF01209F
:1022D000E7E70020E5E70000580C00200C3C024036
:1022E0001CB505F0DDFD514890ED001B504890ED08
:1022F000000B504805F0B2F94F4890ED001B4F48D5
:1023000090ED000B4E4805F0A9F94A4890ED100BEE
:10231000B0EE401AF0EE601A4A4890ED000B4A48C1
:1023200005F09CF9464890ED100BB0EE401AF0EE27
:10233000601A464890ED000B454805F08FF900F013
:102340006BF9032814D1002000900346024640F2A6
:10235000FF1101903F48FEF7FFFC0020009003466C
:10236000024640F2FF1101903B48FEF7F5FC5BE0AE
:1023700000F052F960BB344890ED101BB0EE410AFA
:10238000F0EE610A51EC100BFEF758F904B2002090
:1023900000902346024640F2FF1101902D48FEF7BF
:1023A000DBFC2B4890ED101BB0EE410AF0EE610A09
:1023B00051EC100BFEF742F904B2002000900346E6
:1023C000224640F2FF1101902348FEF7C5FC2BE0A6
:1023D0001D4890ED101BB0EE410AF0EE610A51EC81
:1023E000100BFEF72BF904B20020009023460246A2
:1023F00040F2FF1101901748FEF7AEFC144890ED33
:10240000101BB0EE410AF0EE610A51EC100BFEF722
:1024100015F904B2002000900346224640F2FF1155
:1024200001900D48FEF798FC1CBD000058000020EC
:1024300068000020B80E002060000020700000201E
:10244000B80D002078000020380E00208000002009
:10245000380D0020B8040020E004002010B5044628
:102460000648C0880121A140084020B1FFF7DEFAEC
:1024700008B1012010BD0020FCE70000681000201A
:10248000034A128A0280024AD2890A8070470000F9
:102490006810002010B500F017F820B90120094994
:1024A0000870002010BD07480078012808D100F00E
:1024B0000BF8012804D10020024908700120F1E73F
:1024C0000020EFE72600002010B50421044801F0A9
:1024D0001BFB012801D0012010BD0020FCE70000FB
:1024E00000040240044B1B890380034B5B890B8073
:1024F000014B9B89138070476810002010B503F0D2
:10250000F5FA01200149087010BD0000A400002068
:102510003C480068401C3B49086008460068642845
:1025200001DB002008603848007848B93748007A55
:1025300040B2354908703548407A40B23449087095
:102540003248007A334988743048407AC8742F483A
:10255000007A2D4991F9001088421DD02B48007A4D
:10256000012804D0022806D0032813D107E0032055
:10257000284908740FE00420264908740BE022481B
:102580000078022802D12349087402E00120214981
:10259000087400E000BF02E000201E4908741B48D8
:1025A000407A1B4991F9001088421DD01748407AA3
:1025B000012804D0022806D0032813D107E0032005
:1025C000144948740FE00420124948740BE0104885
:1025D0000078022802D10F49487402E003200D4917
:1025E000487400E000BF02E000200A494874074830
:1025F000007A40B2044908700448407A40B2044965
:10260000087070473400002038000020200D0020A2
:1026100039000020780C0020014800787047000045
:102620004A00002030B504460D4629462046FFF7F3
:1026300077FC30BD10B59FED2C7B9FED2D6B9FED92
:102640002C5B9FED2D4B9FED2A3B9FED2D2B9FED9E
:10265000281B9FED2D0B2E4805F0ECF99FED2D7BEF
:102660009FED236B9FED225B9FED2C4B9FED203B5D
:102670009FED1F2B9FED1E1B9FED2A0B2B4805F096
:10268000D9F99FED197B9FED256B9FED195B9FEDB0
:102690001A4B9FED173B9FED162B9FED151B9FEDE2
:1026A000240B254805F0C6F99FED0F7B9FED106BBD
:1026B0009FED0F5B9FED194B9FED0D3B9FED1F2B8A
:1026C0009FED0B1B9FED1F0B204805F0B3F906F0A3
:1026D00063FD1F48B0F900001E4988611E48B0F92B
:1026E00000001E49886110BD0000000000DBDA40D8
:1026F0000000000000000000000000000052DC406C
:102700007B14AE47E17A74BF00000000008051C026
:10271000380D0020000000FCFFFF9F41000000007A
:1027200000408F400000000000002440B80D002051
:1027300000000000000044C0380E00203333333363
:102740003333F3BF000000000000F0BFB80E0020DC
:10275000560000207C0F002054000020380F00207D
:10276000024692F82000012803D092F820000228A7
:1027700006D110684069084313685861002070470B
:10278000506A40F4802050620120F8E770B504469A
:102790000D46A86800B900E000BF94F820000128A9
:1027A00003D094F8200002287FD12068806800F0D0
:1027B000806050B92068806800F0006028B9206807
:1027C000806800F08050002869D020688068C0F3DD
:1027D0000161012088401860A86850B92E88E86817
:1027E00040EA4656206800F5C07000EB0110066014
:1027F0000BE0D5E9016040EAC600EE683043266888
:1028000006F5C07606EB011630602E69206800F5EB
:10281000C07000EB01104660287D01280DD12068B2
:1028200000F5C07000EB0110406840F4807620682D
:1028300000F5C07000EB01104660D0790006967973
:1028400040EA0640567940EA062610790643206899
:1028500000F5C07000EB0110C660D07800069678D5
:1028600040EA0640567840EA06201678304326684B
:1028700006F5C07606EB0116B060206800F5C07062
:1028800000EB0110006840F00106206800F5C07000
:1028900000EB01100660002070BD06E0FFE7606AF3
:1028A00040F4001060620120F6E7606A40F4802086
:1028B00060620120F0E7000070B504460A4600237C
:1028C000216894F82000012803D094F82000022801
:1028D0007CD1414901F50071086840F001000860B1
:1028E000086820F47C5008600868556A40EA0520B2
:1028F0000860157D012000FA05F3C8699843C86196
:10290000A1F50071D069C8B9D1F80C029843C1F89B
:102910000C02908880B2958940EA054501F5107057
:10292000566940F83650108880B2158940EA05454E
:1029300001F51070566900EBC6004560D0690128AA
:1029400019D1D1F80C021843C1F80C02908880B25A
:10295000158840EA054501F51070566940F8365073
:10296000908980B2158940EA054501F510705669D5
:1029700000EBC6004560906928B9D1F8040298437D
:10298000C1F8040204E0D1F804021843C1F80402BB
:10299000106928B9D1F814029843C1F8140204E070
:1029A000D1F814021843C1F81402106A012804D1A6
:1029B000D1F81C021843C1F81C02D1F8000220F023
:1029C0000100C1F80002002070BDFFE7606A40F41A
:1029D000802060620120F7E700640040704730B556
:1029E000044694F82000012803D094F8200002281F
:1029F0007DD151B92068C06800F0030090B9606AC9
:102A000040F400106062012030BD01290AD1206825
:102A1000006900F0030028B9606A40F400106062A9
:102A20000120F1E7206800F5D87000EB0110006884
:102A300000F004009060906840B9206800F5D870FC
:102A400000EB01100068400D106007E0206800F501
:102A5000D87000EB01100068C0085060206800F5D5
:102A6000D87000EB0110006800F002004008D06050
:102A7000206800F5D87000EB0110406800F00F00EE
:102A80001061206800F5D87000EB0110406800F478
:102A90007F40000A9061206800F5D87000EB0110BB
:102AA0004068000C5061206800F5D87000EB011000
:102AB00080681870206800F5D87000EB01108068FD
:102AC00000F47F40000A5870206800F5D87000EBD1
:102AD0000110806800F47F00000C9870206800F5F9
:102AE000D87000EB01108068000ED87000E034E070
:102AF000206800F5D87000EB0110C06818712068DC
:102B000000F5D87000EB0110C06800F47F40000AA7
:102B10005871206800F5D87000EB0110C06800F40F
:102B20007F00000C9871206800F5D87000EB011050
:102B3000C068000ED87131B92068C06840F020002C
:102B40002568E86007E0012905D12068006940F0A8
:102B5000200025682861002056E7606A40F4802044
:102B60006062012050E70146002091F82020012AF0
:102B700003D091F82020022A11D10A68926802F04D
:102B8000806202B1401C0A68926802F0006202B1E1
:102B9000401C0A68926802F0805202B1401C7047E3
:102BA0002DE9F05F04460025206846692068D0F8CA
:102BB0000490206887682068D0F80CA02068D0F8BE
:102BC00010B02068D0F8188006F00100002855D019
:102BD00007F00100C0B101202168886007F0020001
:102BE00018B1204600F074FB0EE007F0040010B1AD
:102BF00045F4006508E007F0080010B145F4805581
:102C000002E0204600F063FB07F48070C8B14FF487
:102C100080702168886007F4007018B1204600F0C9
:102C200059FB0EE007F4806010B145F4005508E050
:102C300007F4006010B145F4804502E0204600F042
:102C400048FB07F48030C8B14FF4803021688860B9
:102C500007F4003018B1204600F03EFB0EE007F408
:102C6000802010B145F4004508E007F4002010B1C1
:102C700045F4803502E0204600F02DFB06F0080008
:102C800038B10AF0100020B145F400751020216819
:102C9000C86006F0040040B10AF0080028B108201E
:102CA0002168C860204600F00FFA06F0020038B133
:102CB0002068C06800F0030010B1204600F006FA5A
:102CC00006F0400038B10BF0100020B145F48065EB
:102CD00010202168086106F0200040B10BF00800C8
:102CE00028B1082021680861204600F03BFA06F070
:102CF000100038B12068006900F0030010B12046D0
:102D000000F032FA06F4003040B109F0100028B1AA
:102D1000102021684860204600F0A8FA06F48030B0
:102D200040B109F0080028B1082021684860204619
:102D300000F0D3FA06F4004088B309F0040078B339
:102D400006F4807020B108F0010008B145F00105DB
:102D500006F4007020B108F0020008B145F0020549
:102D600006F4806020B108F0040008B145F00405C5
:102D700006F40060A0B108F0700088B108F070009F
:102D8000402817D006DC10280BD020280CD0302883
:102D900019D10CE0502810D0602814D110E01DE0AB
:102DA00019E045F008050FE045F010050CE045F08E
:102DB000200509E045F0400506E045F0800503E008
:102DC00045F4807500E000BF00BF2068806920F0F6
:102DD0007000216888610420216848602DB1606A14
:102DE000284360622046FFF7F9FDBDE8F09F70B50B
:102DF000044600250CB9012070BD94F8200010B9DC
:102E0000204600F0AFF82068006820F0020021683A
:102E1000086000F08BFE05460DE000F087FE401BC9
:102E20000A2808D9606A40F400306062052084F8FE
:102E300020000120E0E72068406800F00200002840
:102E4000EBD12068006840F001002168086000F0C4
:102E50006DFE05460DE000F069FE401B0A2808D90A
:102E6000606A40F400306062052084F82000012090
:102E7000C2E72068406800F001000028EBD0207E07
:102E8000012806D12068006840F0800021680860B1
:102E900005E02068006820F0800021680860607EFE
:102EA000012806D12068006840F0400021680860D1
:102EB00005E02068006820F0400021680860A07EDE
:102EC000012806D12068006840F0200021680860D1
:102ED00005E02068006820F0200021680860E07E9E
:102EE000012806D12068006820F0100021680860E1
:102EF00005E02068006840F0100021680860207F2D
:102F0000012806D12068006840F0080021680860A8
:102F100005E02068006820F0080021680860607FF4
:102F2000012806D12068006840F00400216808608C
:102F300005E02068006820F0040021680860D4E9FA
:102F40000201084321690843616908436168491E19
:102F500008432168C86100206062012084F82000D5
:102F6000002049E710B586B00446142101A8FDF7FA
:102F7000B4F94F492068884241D14E480068401C4E
:102F80004C4908600846006801280FD100BF0020A6
:102F900000904948006840F00070474908600846C2
:102FA000006800F00070009000BF00BF00BF00206C
:102FB000009041481038006840F008003E49103940
:102FC00008600846006800F00800009000BF00BFDD
:102FD000032001900220029000200390032004901F
:102FE0000920059001A9354800F080FC0022114617
:102FF000142000F06FFE142000F05FFE55E0304911
:103000002068884251D100BF002000902A48006803
:1030100040F08060284908600846006800F0806041
:10302000009000BF00BF23480068401C2149086091
:103030000846006801280FD100BF002000901E48FC
:10304000006840F000701C4908600846006800F005
:103050000070009000BF00BF00BF00200090164825
:103060001038006840F00200134910390860084623
:10307000006800F00200009000BF00BF4FF4405015
:103080000190022002900020039003200490092068
:10309000059001A90B4800F029FC002211464120AF
:1030A00000F018FE412000F008FE06B010BD000040
:1030B000006400400000002040380240000C024044
:1030C00000680040000402407047000030B587B03F
:1030D00005461C48854232D11B4B6A4600212846D2
:1030E000FFF77DFC044654BB0098A0F2012008289D
:1030F00023D2DFE800F004090E221314221912492A
:10310000124804F0F5FF19E00F49114804F0F0FFF0
:1031100014E00D490F48FDF7EBFD0FE00EE00A4902
:103120000D48FFF77FFA09E007490C4803F0E4FE79
:1031300005490B4803F060FF00E000BF00BF07B087
:1031400030BD0000B80400201600002090130020BD
:10315000B4130020D81400207C0F0020B0180020E9
:10316000D41800207047000030B587B005463548B8
:10317000854264D1344B6A460121FFF730FC044696
:10318000002C5CD140F203220098811A90422ED08C
:1031900011DC40F24112A0EB0201904241D005DC6B
:1031A000A0F20910A8B1372847D13FE0C02914D0B8
:1031B000C12942D116E0032928D004DC01291BD003
:1031C00002293AD11DE0042925D0A1F21D1199BB95
:1031D00026E01D4804F04EFF30E01B491B48FEF777
:1031E000CFFB2BE018491A48FEF7CAFB26E0164928
:1031F0001848FEF7C5FB21E013491748FEF7C0FB4E
:103200001CE011491548FFF70DFA00BF0E4913489D
:10321000FFF708FA12E00C49114804F0B9FF0DE07D
:103220000CE009490F48FEF7E5FD07E006490E48A6
:103230000088FEF7DAFD01E0FFE700BF00BF07B03E
:1032400030BD0000E00400201E000020801000209F
:10325000A4100020C8100020EC100020380F00201F
:1032600068170020EC01002014000020704770B5A2
:103270000446002594F82000012822D1022084F879
:1032800020002068006820F001002168086000F03C
:103290004DFC05460DE000F049FC401B0A2808D90A
:1032A000606A40F400306062052084F8200001204C
:1032B00070BD2068406800F001000028EBD160621A
:1032C000F6E7606A40F4002060620120F0E7704792
:1032D000704770477047704770477047014691F8D4
:1032E0003500022803D08020486501207047052062
:1032F00081F835000868006820F001000A68106055
:103300000020F3E7F8B50446002000908C480068E0
:103310004FF41651B0FBF1F7A56D2E6894F85C10D0
:1033200008208840304098B12068006800F0040010
:1033300070B12068006820F004002168086094F8EB
:103340005C1008208840A860606D40F00100606556
:1033500094F85C1001208840304068B120684069D2
:1033600000F0800040B194F85C1001208840A86013
:10337000606D40F00200606594F85C1004208840A5
:10338000304068B12068006800F0020040B194F855
:103390005C1004208840A860606D40F00400606507
:1033A00094F85C1010208840304078B320680068A2
:1033B00000F0080050B394F85C1010208840A8601A
:1033C0002068006800F4802080B12068006800F464
:1033D000002028B9206CC8B12046216C884715E030
:1033E000A06C98B12046A16C88470FE02068006867
:1033F00000F4807028B92068006820F00800216877
:103400000860206C10B12046216C884794F85C104D
:10341000202088403040002865D02068006800F0F7
:10342000100000285FD094F85C1020208840A8602D
:1034300094F83500052828D12068006820F016008F
:10344000216808602068406920F080002168486198
:10345000206C08B9A06C28B12068006820F0080032
:103460002168086094F85C103F208840A86000BF85
:10347000002084F8340000BF012084F83500206D5E
:1034800010B12046216D8847F8BD2068006800F41F
:10349000802080B12068006800F4002028B9606CAA
:1034A00010B12046616C88471DE0E06BD8B1204622
:1034B000E16B884717E02068006800F4807068B905
:1034C0002068006820F010002168086000BF00201C
:1034D00084F8340000BF012084F83500E06B10B19F
:1034E0002046E16B8847606D38B3606D00F00100E5
:1034F000F0B1052084F835002068006820F0010054
:103500002168086000BF0098401C0090B84200D9B4
:1035100005E02068006800F001000028F3D100BF3A
:1035200000BF002084F8340000BF012084F835007B
:10353000E06C10B12046E16C884700BFA4E70000B2
:10354000100000202DE9F0410446002500F0EEFABD
:10355000074614B90120BDE8F081606A00B100BFE0
:1035600000BF002084F8340000BF022084F835003A
:103570002068006820F00100216808600AE000F07F
:10358000D5FAC01B052805D920206065032084F8E2
:103590003500E0E72068006800F001000028EED167
:1035A0002068056821480540D4E901010843E16825
:1035B00008432169084361690843A1690843E16937
:1035C0000843216A08430543606A042803D1D4E90B
:1035D0000B0108430543206805602068456925F014
:1035E0000705606A0543606A04280DD1A06A054397
:1035F000E06A48B12046FEF733FB28B14020606501
:10360000012084F83500A6E7206845612046FEF7D2
:103610000DFB064694F85C103F208840B060002007
:103620006065012084F83500002094E73F8010F0A9
:103630002DE9F04104460D4616461F464FF000089E
:1036400000BF94F83400012802D10220BDE8F081C7
:10365000012084F8340000BF94F83500012811D10E
:10366000022084F83500002060653B46324629463A
:103670002046FEF74AFB2068006840F00100216800
:10368000086006E000BF002084F8340000BF4FF05F
:1036900002084046DAE72DE9F04704460D46164693
:1036A0001F464FF00008D4F8589000BF94F834003B
:1036B000012802D10220BDE8F087012084F83400FF
:1036C00000BF94F8350001282BD1022084F8350082
:1036D000002060653B46324629462046FEF715FB32
:1036E00094F85C103F208840C9F808002068006802
:1036F00040F01600216808602068406940F08000B2
:1037000021684861206C28B12068006840F00800FA
:10371000216808602068006840F0010021680860A6
:1037200006E000BF002084F8340000BF4FF002081C
:103730004046C0E770B5044600F0F8F90646254655
:10374000681C10B104480078054400BF00F0EEF991
:10375000801BA842FAD370BD0C0000202DE9F04177
:1037600004460E460127002500BF2648007E01289A
:1037700002D10220BDE8F08101202249087600BF75
:103780004CF25030FEF77AFD0746002F32D1401E32
:1037900030602068012810D1207C6168FEF79AFC17
:1037A0004CF25030FEF76AFD07461748006848F2B1
:1037B00004018843144908601AE0A56812E0217CDE
:1037C0002846FEF71BFC4CF25030FEF757FD07462B
:1037D0000D48006820F0FA000B4908600FB1356011
:1037E00005E06D1CD4E902100844A842E7D800BFE8
:1037F000FEF734FC00BF00200249087600BF3846BF
:10380000B8E70000580C0020103C02400348006854
:1038100040F000400149086000207047103C024021
:103820002DE9F04106460F4614461D464FF00108AB
:1038300000BF1F48007E012802D10220BDE8F081B0
:1038400001201B49087600BF4CF25030FEF716FDF0
:103850008046B8F1000F23D126B9E1B23846FEF711
:1038600063FC12E0012E04D1A1B23846FEF784FCBD
:103870000BE0022E04D121463846FEF791FC04E00D
:1038800022462B463846FEF761FC4CF25030FEF7DC
:10389000F5FC80460748006820F0010005490860F3
:1038A00000BF00200249087600BF4046C6E700007E
:1038B000580C0020103C024000200949096801F022
:1038C000004159B10749064A0C3A11600649116096
:1038D0000349096801F0004101B10120704700006F
:1038E000103C024023016745AB89EFCDF8B5024695
:1038F0000B460025002400200021E6E0012606FA00
:1039000001F51E6806EA0504AC4273D15E68022E1A
:1039100002D05E68122E13D1CF0802F1200656F8AD
:1039200027004E07F70E0F26BE40B0434F07FF0E8D
:103930001E69BE403043CF0802F1200646F827003A
:1039400010684F000326BE40B0431E7906F0030600
:103950004F00BE40304310605E68012E08D05E68A4
:10396000022E05D05E68112E02D05E68122E13D191
:1039700090684F000326BE40B0434F00DE68BE4053
:1039800030439060506801268E40B0431E79C6F3E4
:1039900000168E4030435060D0684F000326BE4072
:1039A000B0434F009E68BE403043D0605E6806F072
:1039B0008056B6F1805FA8D100BF00260096454E24
:1039C000366846F48046434F3E603E46366806F40D
:1039D0008046009600BF00BF3F4E8F0856F8270074
:1039E0008E07370F0F26BE40B0433C4EB24202D185
:1039F00000262EE068E03A4EB24201D1012628E0CE
:103A0000384EB24201D1022623E0374EB24201D1F4
:103A100003261EE0354EB24201D1042619E0344E91
:103A2000B24201D1052614E0324EB24201D106263F
:103A30000FE0314EB24201D107260AE02F4EB242CA
:103A400001D1082605E02E4EB24201D1092600E040
:103A50000A268F073F0FBE4030431F4E8F0846F89F
:103A60002700284E3068A0435E6806F48036B6F51D
:103A7000803F00D12043234E3060361D3068A04384
:103A80005E6806F40036B6F5003F00D120431D4EB7
:103A9000361D3060361D3068A0435E6806F480161F
:103AA000B6F5801F00D12043164E08363060361D13
:103AB0003068A0435E6806F40016B6F5001F00D11A
:103AC0002043104E0C363060491C1029FFF416AF0D
:103AD000F8BD0000443802400838014000000240B0
:103AE0000004024000080240000C024000100240A6
:103AF0000014024000180240001C02400020024056
:103B000000240240003C0140024613690B400BB107
:103B1000012000E00020704742694A40426170473E
:103B20000AB1816101E00B048361704701480068BC
:103B3000704700000400002003480068034909782A
:103B40000844014908607047040000200C00002070
:103B500010B50D48006840F400700B490860084635
:103B6000006840F4806008600846006840F4807097
:103B70000860032000F0ECF8002000F007F800F0E7
:103B80002BF8002010BD0000003C024070B5044638
:103B90000E4800784FF47A71B1FBF0F00C490968D7
:103BA000B1FBF0F5284600F0DEFE08B1012070BD43
:103BB000102C07D200222146501E00F08BF8054839
:103BC000046001E00120F2E70020F0E70C00002093
:103BD000100000200800002008B500BF0020009061
:103BE0000E48006840F480400C49086008460068B0
:103BF00000F48040009000BF00BF00BF0020009094
:103C0000081F006840F08050091F086008460068DF
:103C100000F08050009000BF00BF08BD4438024053
:103C200070B504460D4616460CB9012070BD94F8D7
:103C3000390028B9002084F83800204601F0B6FC8D
:103C4000242084F839002068C06820F400502168DE
:103C5000C860204604F09EFE2068006920F4904071
:103C6000216808612068406920F02A0021684861C5
:103C70002068006920F00F00216808612068006951
:103C80002843216808612068C06820F4006021682A
:103C9000C8602068C06830432168C8602068C06878
:103CA00040F400502168C8600020E063202084F8C0
:103CB000390084F83A000020B8E700BF00F01F0286
:103CC000012191404209920002F1E022C2F8001164
:103CD00000BF70472DE9F05F80460D46164600276D
:103CE00003F02EFC074639462A46334601F007000A
:103CF000C0F1070ABAF1040F02D94FF0040A01E03B
:103D0000C0F1070AD14600F1040ABAF1070F02D246
:103D10004FF0000A01E0A0F1030AD4464FF0010A77
:103D20000AFA09FAAAF1010A0AEA020A0AFA0CFADC
:103D30004FF0010B0BFA0CFBABF1010B0BEA030B81
:103D40004AEA0B042146404603F002FCBDE8F09F1E
:103D500000BF00F00702064B19684FF6FF03194039
:103D6000044B0B4343EA0221014B196000BF70472B
:103D70000CED00E00000FA0530B58BB004460025DC
:103D800014B901200BB030BD032084F8B9032046DC
:103D900000F094F8206805F04FF9282204F1100192
:103DA0006846FCF781FA94E80F0005F007F8002157
:103DB000206805F077F9002530E00121C5EBC50248
:103DC00004F1380000EB82004170C5EBC50204F13C
:103DD000380000F82250C5EBC50200EB8200C58018
:103DE0000021C5EBC50204F1380000EB8200C17070
:103DF000C5EBC50204F1380000EB82008160C5EB21
:103E0000C50204F1380000EB8200C160C5EBC502B9
:103E100004F1380000EB820041616D1C0F2DCCD302
:103E2000002536E00021C5EBC50204F5FC7000EB6F
:103E300082004170C5EBC50204F5FC7000F8225009
:103E4000C5EBC50204F1380000EB8200C580C5EB6C
:103E5000C50204F5FC7000EB8200C170C5EBC50221
:103E600004F5FC7000EB82008160C5EBC50204F52F
:103E7000FC7000EB8200C160C5EBC50204F5FC706C
:103E800000EB82004161206800F5827040F8251047
:103E90006D1C0F2DC6D3282204F110016846FCF7D3
:103EA00003FA94E80F0004F0F7FF012084F8B90347
:103EB000206804F0E1FF002064E7000010B586B040
:103EC0000446142101A8FCF708FA2068B0F1A04FBD
:103ED00048D100BF002000902348006840F0010056
:103EE000214908600846006800F00100009000BF0A
:103EF00000BF88140190022002900120039003204B
:103F000004900A20059001A91848FFF7EFFC4FF430
:103F10000060019002200290002003900320049092
:103F20000A20059001A91148FFF7E0FC00BF0E48E8
:103F3000001D006840F080000B49091D086000BFAB
:103F40000020009008481430006840F48040064982
:103F5000143108600846006800F48040009000BFFB
:103F600000BF00BF06B010BD303802400000024064
:103F700070B504460D460CB9012070BD5848006864
:103F800000F00F00A84209D255490D70084600689C
:103F900000F00F00A84201D00120EEE7207800F0E9
:103FA000020002281DD1207800F00400042805D169
:103FB0004C48006840F4E0504A490860207800F01E
:103FC0000800082805D14748006840F4604045498A
:103FD00008604448006820F0F000A16808434149A7
:103FE0000860207800F00100A8B36068012807D1BC
:103FF0003C4808380068C0F34040B8B90120BCE72D
:104000006068022802D06068032807D13548083864
:104010000068C0F3406048B90120AEE73148083875
:104020000068C0F3400008B90120A6E72D480068E9
:1040300020F00300616808432A490860FFF776FD15
:10404000064609E0FFF772FD801B41F28831884285
:1040500002D9032091E707E02248006800F00C0035
:104060006168B0EB810FEDD11D48006800F00F00D2
:10407000A84209D91A490D700846006800F00F00DF
:10408000A84201D0012078E7207800F0040004283D
:1040900007D11448006820F4E050E1680843114952
:1040A0000860207800F00800082808D10D48006852
:1040B00020F46040216940EAC1000A49086000F02C
:1040C0003DF808490968C1F30311074A515CC8402B
:1040D000064908600020FFF759FD00204DE7000069
:1040E000003C024008380240009F000810000020F9
:1040F00001480068704700001000002000B5FFF77D
:10410000F7FF04490968C1F38221034A515CC840A2
:1041100000BD000008380240109F000800B5FFF7FE
:10412000E7FF04490968C1F34231034A515CC840C2
:1041300000BD000008380240109F00082DE9F0473C
:10414000002400250026A1462548006800F00C0048
:1041500020B1042805D008283AD105E0DFF8849082
:1041600039E0DFF8849036E01D48001F006800F059
:104170003F041B48001F006800F4800078B11A4813
:104180001749091F0968C1F38811A0FB0170014696
:10419000224600233846FCF725F805460EE0114874
:1041A0000F49091F0968C1F38811A0FB017001467E
:1041B000224600233846FCF715F805460848001F3C
:1041C0000068C0F30140401C4600B5FBF6F902E070
:1041D000DFF8109000BF00BF4846BDE8F087000040
:1041E000083802400024F400001BB700F8B504466C
:1041F0000CB90120F8BD207800F00100002874D02F
:10420000F948006800F00C0004280DD0F64800685A
:1042100000F00C00082813D1F348001F006800F4D8
:104220008000B0F5800F0BD1EF4808380068C0F36C
:104230004040002859D06068002856D10120D9E7B5
:1042400000BF6068B0F5803F08D1E74808380068D3
:1042500040F48030E449083908601EE06068B0F539
:10426000A02F0DD1E0480838006840F48020DE49D6
:10427000083908600846006840F4803008600CE0A7
:10428000D9480838006820F48030D74908390860D8
:104290000846006820F48020086000BF606890B184
:1042A000FFF744FC054606E0FFF740FC401B64288E
:1042B00001D903209EE7CC4808380068C0F340408D
:1042C0000028F1D011E0FFF731FC054606E0FFF7CA
:1042D0002DFC401B642801D903208BE7C248083815
:1042E0000068C0F340400028F1D1207800F00200BF
:1042F00002285FD1BC48006800F00C0058B1BA48F1
:10430000006800F00C0008281CD1B748001F0068A6
:1043100000F48000B0B9B44808380068C0F3400029
:1043200020B1E068012801D0012063E7AE480838D9
:10433000006820F0F800216940EAC100AA49083964
:10434000086037E0E06800B30120A8490860FFF783
:10435000EDFB054606E0FFF7E9FB401B022801D90B
:10436000032047E7A04808380068C0F34000002851
:10437000F1D09D480838006820F0F800216940EA33
:10438000C10099490839086014E000209749086085
:10439000FFF7CCFB054606E0FFF7C8FB401B0228F1
:1043A00001D9032026E7904808380068C0F3400090
:1043B0000028F1D1207800F0080008282CD160698D
:1043C000A8B101208A490860FFF7B0FB054606E066
:1043D000FFF7ACFB401B022801D903200AE7824803
:1043E0006C300068C0F340000028F1D014E00020D9
:1043F0007F490860FFF79AFB054606E0FFF796FB4A
:10440000401B022801D90320F4E677486C3000688D
:10441000C0F340000028F1D1207800F00400042807
:1044200070D1002670483830006800F0805090B994
:1044300000BF002000906C483830006840F0805089
:104440006949383108600846006800F080500090E3
:1044500000BF00BF01266748006800F48070B0B953
:104460006448006840F4807062490860FFF75EFBB2
:10447000054606E0FFF75AFB401B022801D903203E
:10448000B8E65C48006800F480700028F2D000BFF5
:10449000A068012808D154486830006840F0010045
:1044A0005149683108601DE0A06805280DD14E48CB
:1044B0006830006840F004004B49683108600846E5
:1044C000006840F0010008600CE047486830006870
:1044D00020F001004449683108600846006820F077
:1044E0000400086000BFA068A8B1FFF71FFB0546E5
:1044F00009E0FFF71BFB401B41F28831884202D9DB
:10450000032077E626E0384868300068C0F34000B2
:104510000028EED013E0FFF709FB054608E0FFF79F
:1045200005FB401B41F28831884201D9032061E636
:104530002D4868300068C0F340000028EFD1012EFC
:1045400007D129483830006820F08050264938319A
:10455000086000BFA069B8B32348006800F00C00F1
:1045600008285ED0A069022846D100201F490866AD
:10457000FFF7DCFA054606E0FFF7D8FA401B0228F1
:1045800001D9032036E6184808380068C0F34060B7
:104590000028F1D1D4E907010843616A40EA81119A
:1045A0000122A06AC2EB500041EA00412C20005DCC
:1045B00041EA00600C49091F086001200B490866A8
:1045C000FFF7B4FA054607E02DE0FFF7AFFA401B0E
:1045D000022801D903200DE6034808380068C0F31B
:1045E00040600028F1D01EE0083802400000474239
:1045F000800E47420070004000200C490866FFF71B
:1046000095FA054606E0FFF791FA401B022801D90A
:104610000320EFE506480068C0F340600028F2D1AF
:1046200001E00120E6E50020E4E50000000047424B
:104630000038024010B504460CB9012010BD606A74
:1046400000B900BF0021A16294F8510028B90020F0
:1046500084F85000204600F033F8022084F851001E
:104660002068006820F0400021680860D4E901015A
:104670000843E16808432169084361690843218BC5
:1046800001F400710843E1690843216A0843A16A03
:104690000843216808600421A06901EA1040616AAA
:1046A0000843216848602068C06920F400602168E0
:1046B000C86100206065012084F851000020BDE73A
:1046C00010B586B00446142101A8FBF706FE1B496D
:1046D0002068884230D100BF002000901848006850
:1046E00040F48010164908600846006800F4801005
:1046F000009000BF00BF00BF002000901048143899
:10470000006840F020000E4914390860084600682F
:1047100000F02000009000BF00BF4FF460700190D7
:1047200002200290002003900320049005200590B1
:1047300001A90448FFF7DAF806B010BD00500140A7
:1047400044380240001402402DE9FE4F04460D4655
:1047500016461F46DDF830804FF0000A0020029018
:1047600081464FF0010B019000BF94F850000128E2
:1047700002D10220BDE8FE8F012084F8500000BF66
:10478000FFF7D4F9814694F851A060680290BAF11D
:10479000010F0BD00298B0F5827F04D1A06810B948
:1047A000BAF1040F02D002200190D2E00DB106B19F
:1047B00017B901200190CCE094F85100012802D1F2
:1047C000052084F8510000206065A663E787A7876D
:1047D0002563E786A786206460642068006800F08F
:1047E0004000402805D02068006840F04000216863
:1047F0000860E068B0F5006F43D1606810B1E08EEA
:10480000012806D128882168C860AD1CE08E401EB2
:10481000E0862FE0BBF1000F10D0E08E70B1206871
:10482000806800F00200022808D128882168C8604A
:10483000AD1CE08E401EE0864FF0000BE08F68B1AB
:104840002068806800F0010040B12068C0683080B6
:10485000B61CE08F401EE0874FF0010B08F101000D
:1048600040B1FFF763F9A0EB0900404502D30320F4
:1048700001906EE0E08E0028CCD1E08F0028C9D1F5
:1048800042E0606810B1E08E012806D128782168E6
:1048900008736D1CE08E401EE0862FE0BBF1000F18
:1048A00010D0E08E70B12068806800F0020002280D
:1048B00008D115F8010B21680873E08E401EE086D0
:1048C0004FF0000BE08F68B12068806800F00100B5
:1048D00040B12068C06806F8010BE08F401EE087F9
:1048E0004FF0010B08F1010040B1FFF71FF9A0EBF9
:1048F0000900404502D3032001902AE0E08E002801
:10490000CCD1E08F0028C9D14346012202212046A4
:10491000CDF8009003F0FCF810B10320019018E0EE
:104920004A464146204603F0DFF820B101200190BD
:10493000202060650DE0A06850B900BF0020009005
:104940002068C068009020688068009000BF00BFA9
:1049500000BF012084F8510000BF002084F85000FF
:1049600000BF019806E770B504462546681EB0F101
:10497000807F01D301200FE0681E4FF0E0214861E5
:104980000F214FF0FF3002F0E3FD00204FF0E02157
:10499000886107200861002070BD7047704710B51E
:1049A0000346002200BF93F83800012801D10220FD
:1049B00010BD012083F8380000BF22F0FF00CC6852
:1049C00040EA040222F440708C6840EA040222F4B7
:1049D00080604C6840EA040222F400600C6840EAFF
:1049E000040222F480500C6940EA040222F40050D0
:1049F0004C6940EA040222F480408C6940EA0402D7
:104A000022F400408C6940EA04021868426400BF46
:104A1000002083F8380000BF00BFC9E7024600BF8E
:104A200092F83800012801D102207047012082F855
:104A3000380000BF022082F839001068406820F07A
:104A4000700013685860106840680B68184313685A
:104A500058601068806820F08000136898601068C3
:104A600080684B68184313689860012082F8390009
:104A700000BF002082F8380000BF00BFD5E710B5A6
:104A800004460CB9012010BD94F8390028B9002063
:104A900084F83800204600F00DF8022084F8390030
:104AA000211D206803F084FC012084F839000020D7
:104AB000E9E7000038B504466549206888420FD10F
:104AC00000BF002000906348006840F00100614989
:104AD00008600846006800F00100009000BFB6E0E2
:104AE0002068B0F1804F11D100BF002000905948DC
:104AF000001F006840F001005649091F0860084681
:104B0000006800F00100009000BFA0E0524920685A
:104B1000884211D100BF002000904E48001F00685D
:104B200040F002004B49091F08600846006800F089
:104B30000200009000BF8AE048492068884211D1F5
:104B400000BF002000904348001F006840F00400B0
:104B50004049091F08600846006800F00400009002
:104B600000BF74E03E492068884211D100BF002098
:104B700000903848001F006840F008003549091FC0
:104B800008600846006800F00800009000BF5EE082
:104B90003449206888421AD100BF002000902D4877
:104BA000001F006840F010002A49091F08600846ED
:104BB000006800F01000009000BF00BF0022114606
:104BC0003620FFF787F83620FFF777F83FE02649D1
:104BD000206888420FD100BF002000901D48006867
:104BE00040F002001B4908600846006800F002001F
:104BF000009000BF2BE01D492068884211D100BF02
:104C0000002000901348001F006840F04000114948
:104C1000091F08600846006800F04000009000BFCF
:104C200015E013492068884211D100BF0020009090
:104C30000848001F006840F480700649091F08609A
:104C40000846006800F48070009000BF00BF38BDC7
:104C500000000140443802400004004000080040C9
:104C6000000C00400010004000040140001800400B
:104C7000002000400146022081F8390008680068E1
:104C800040F001000A681060012081F8390000201E
:104C9000704701460868C06840F001000A68D060AB
:104CA0000868006840F001000A6810600020704742
:104CB0002DE9F04104460D46002600BF94F8380067
:104CC000012802D10220BDE8F081012084F83800DB
:104CD00000BF022084F839002068866826F0770635
:104CE00026F47F4620688660286850283BD00CDC7C
:104CF000202860D004DC002853D0102865D155E06E
:104D000030285DD0402860D141E0602835D070283F
:104D10000DD0B0F5805F03D0B0F5005F55D115E040
:104D20002068806820F00700216888604EE0D5E99F
:104D300002136A68206803F0BBFB2068866826F0CF
:104D4000770646F07706206886603FE0D5E90213D3
:104D50006A68206803F0ACFB2068806840F48040FB
:104D60002168886032E0EA686968206803F096FC90
:104D70005021206803F0A8FB28E0EA6869682068F1
:104D800003F0A1FC6021206803F09EFB1EE0EA68AE
:104D90006968206803F082FC4021206803F094FBDE
:104DA00014E00021206803F08FFB0FE01021206841
:104DB00003F08AFB0AE02021206803F085FB05E070
:104DC0003021206803F080FB00E000BF00BF01201D
:104DD00084F8390000BF002084F8380000BF00BF0D
:104DE00071E7704710B5044620680069C0F34000C1
:104DF000D8B12068C068C0F34000B0B16FF00200C5
:104E000021680861012020762068806900F0030095
:104E100018B12046FFF7E5FF05E0204600F054FA00
:104E2000204600F0F1FA0020207620680069C0F3E7
:104E30008000D8B12068C068C0F38000B0B16FF0C6
:104E4000040021680861022020762068806900F44F
:104E5000407018B12046FFF7C4FF05E0204600F07F
:104E600033FA204600F0D0FA00202076206800694E
:104E7000C0F3C000D8B12068C068C0F3C000B0B1B2
:104E80006FF0080021680861042020762068C0695E
:104E900000F0030018B12046FFF7A3FF05E020460D
:104EA00000F012FA204600F0AFFA002020762068C9
:104EB0000069C0F30010D8B12068C068C0F30010CA
:104EC000B0B16FF0100021680861082020762068DA
:104ED000C06900F4407018B12046FFF782FF05E07A
:104EE000204600F0F1F9204600F08EFA00202076EE
:104EF0002068006900F0010058B12068C06800F027
:104F0000010030B16FF0010021680861204600F017
:104F1000A3FA20680069C0F3C01058B12068C068C7
:104F2000C0F3C01030B16FF08000216808612046E6
:104F3000FFF733FD20680069C0F3801058B1206886
:104F4000C068C0F3801030B16FF040002168086184
:104F5000204600F082FA20680069C0F3401058B182
:104F60002068C068C0F3401030B16FF020002168A5
:104F700008612046FFF712FD10BD000010B586B095
:104F80000446142101A8FBF7A8F9C149206888420A
:104F90003BD100BF00200090BE48006840F00100F7
:104FA000BC4908600846006800F00100009000BF9E
:104FB00000BF00BF002000900846006840F01000CD
:104FC00008600846006800F01000009000BF00BFB5
:104FD0004FF4E060019002200290002003900490C2
:104FE0000120059001A9AC48FEF780FC4FF48040F9
:104FF000019002200290002003900490012005906F
:1050000001A9A648FEF772FC40E12068B0F1804F8C
:105010003AD100BF002000909E48006840F0020096
:105020009C4908600846006800F00200009000BF3C
:1050300000BF00BF002000900846006840F001005B
:1050400008600846006800F00100009000BF00BF43
:10505000082001900220029000200390049001207B
:10506000059001A98E48FEF741FC48F20C00019022
:10507000022002900020039004900120059001A9D5
:105080008548FEF733FC01E18649206888423AD121
:1050900000BF002000907F48006840F002007D497A
:1050A00008600846006800F00200009000BF00BFE2
:1050B00000BF002000900846006840F0040008602F
:1050C0000846006800F00400009000BF00BF1020F8
:1050D000019002200290002003900490022005908D
:1050E00001A96F48FEF702FC4FF4607001900220A6
:1050F00002900020039004900220059001A96A48C4
:10510000FEF7F4FBC2E06949206888423BD100BF4A
:10511000002000905F48006840F002005D49086090
:105120000846006800F00200009000BF00BF00BF0A
:10513000002000900846006840F00800086008461B
:10514000006800F00800009000BF00BF4FF44070FE
:10515000019002200290002003900490022005900C
:1051600001A94F48FEF7C2FB4FF4405001900220C6
:1051700002900020039004900220059001A94C4861
:10518000FEF7B4FB82E04B49206888423AD100BF69
:10519000002000903F48006840F480703D4908605E
:1051A0000846006800F48070009000BF00BF00BF98
:1051B000002000900846006840F080000860084623
:1051C000006800F08000009000BF00BF0120019047
:1051D000022002900020039004900220059001A973
:1051E0003548FEF783FB4FF4E05001900220029017
:1051F0000020039004900220059001A92F48FEF79B
:1052000075FB43E02E49206888421DD100BF002075
:1052100000902048006840F480701E4908600846ED
:10522000006800F48070009000BF00BFE42001908F
:10523000022002900020039004900320059001A911
:105240001D48FEF753FB21E01E49206888421DD10E
:1052500000BF002000900F48006840F080000D491A
:1052600008600846006800F08000009000BF00BFA2
:105270004FF41070019002200290002003900490DF
:105280000920059001A90D48FEF730FB06B010BDBE
:10529000000001403038024000000240001002408F
:1052A00000040240000400400008024000080040E2
:1052B000000C0240000C004000200240001C024094
:1052C0000004014000180040704770B504460D46C8
:1052D000164600BF94F83800012801D1022070BDA5
:1052E000012084F8380000BF022084F8390036B16C
:1052F000042E1BD0082E31D00C2E5ED145E029465D
:10530000206803F0EBF82068806940F0080021680D
:1053100088612068806920F0040021688861206825
:105320008069296908432168886147E02946206827
:1053300003F00CF92068806940F4006021688861FE
:105340002068806920F48060216888612068806915
:10535000296940EA0120216888612FE029462068F8
:1053600003F030F92068C06940F008002168C86186
:105370002068C06920F004002168C8612068C06905
:10538000296908432168C86118E02946206803F0AC
:1053900055F92068C06940F400602168C861206840
:1053A000C06920F480602168C8612068C0692969EB
:1053B00040EA01202168C86100E000BF00BF012071
:1053C00084F8390000BF002084F8380000BF00BF17
:1053D00085E710B504460CB9012010BD94F83900DA
:1053E00028B9002084F83800204600F00CF802208C
:1053F00084F83900211D206802F0DAFF012084F8CA
:1054000039000020E9E770477047000030B50446D6
:105410000D4601222946206803F03CF80C4920681B
:10542000884203D00B492068884201D1012000E066
:10543000002028B12068406C40F400402168486496
:105440002068006840F0010021680860002030BD3D
:1054500000000140000401407047704770470000A1
:105460002DE9F0470446206805682068C668206872
:1054700047694FF00008C14605F00F08B8F1000F6A
:105480000AD105F0200038B106F0200020B12046F6
:1054900003F032FABDE8F087B8F1000F6DD007F0E5
:1054A000010018B906F49070002866D005F00100DC
:1054B00030B106F4807018B1E06B40F00100E06399
:1054C00005F0040030B107F0010018B1E06B40F0C6
:1054D0000200E06305F0020030B107F0010018B1EE
:1054E000E06B40F00400E06305F0080030B107F025
:1054F000010018B1E06B40F00800E063E06B68B3B6
:1055000005F0200028B106F0200010B1204603F07D
:10551000F3F920684069C0F38019E06B00F00800DF
:1055200010B9B9F1000F22D0204603F09BF9206892
:10553000406900F04000B0B12068406920F04000B0
:1055400021684861606B50B11748616B0865606BFA
:10555000FDF7C4FE10B1606B016D88470CE020467A
:10556000FFF77CFF08E02046FFF778FF04E02046C5
:10557000FFF774FF0020E0638CE705F0800030B196
:1055800006F0800018B1204603F0B8FB82E705F072
:10559000400030B106F0400018B1204603F072F927
:1055A00078E700BF76E70000AD87000810B586B049
:1055B0000446142101A8FAF790FEFD4920688842AC
:1055C00031D100BF00200090FA48006840F08040D0
:1055D000F84908600846006800F08040009000BF6D
:1055E00000BF00BF00200090F2481038006840F073
:1055F0001000F049103908600846006800F01000FB
:10560000009000BF00BF4FF4C070019002200290D4
:1056100000200390032004900820059001A9E6488B
:10562000FEF764F9C1E1E5492068884230D100BF46
:1056300000200090DF48006840F00040DD4908602D
:105640000846006800F00040009000BF00BF00BFA7
:1056500000200090D7481038006840F01000D5496D
:10566000103908600846006800F01000009000BF84
:1056700000BF03200190022002900020039003202D
:1056800004900820059001A9CB48FEF72FF98CE182
:10569000CB492068884257D100BF00200090C54800
:1056A000001D006840F01000C249091D086008464E
:1056B000006800F01000009000BF00BF00BF002095
:1056C0000090BC481038006840F00200B949103919
:1056D00008600846006800F00200009000BF00BFAC
:1056E000C02001900220029000200390032004902B
:1056F0000720059001A9B348FEF7F8F8B248B3496E
:1057000008604FF0006048600021B0488160C160CF
:105710004FF480610161002141618161C1610162D9
:105720004162FDF70FFF08B1FCF766FC00BFA74818
:105730006063846300BF002211462520FEF7CAFA89
:105740002520FEF7BAFA30E1A1492068884255D1F8
:1057500000BF002000909748006840F40030954951
:1057600008600846006800F40030009000BF00BFE9
:1057700000BF002000908F481038006840F00800FB
:105780008C49103908600846006800F00800009055
:1057900000BF00BF60200190022002900020039013
:1057A000032004900720059001A98A48FEF79EF87F
:1057B00089488A4908604FF00060486000218748A6
:1057C0008160C1604FF480610161002141618161AC
:1057D000C16101624162FDF7B5FE08B1FCF70CFC46
:1057E00000BF7E486063846300BF0022114626200C
:1057F000FEF770FA2620FEF760FAD6E078492068B6
:10580000884276D100BF002000906A48006840F4CA
:105810008020684908600846006800F480200090F5
:1058200000BF00BF00BF0020009062481038006831
:1058300040F008005F49103908600846006800F031
:105840000800009000BF00BF4FF44070019002209C
:10585000029000200390032004900720059001A9E6
:105860005C48FEF743F85C4860385E4908604FF0DA
:105870000060486000215B488160C1604FF4806136
:105880000161002141618161C16101624162FDF7F5
:1058900059FE08B1FCF7B0FB00BF52486063846357
:1058A00000BF4D4818385049086040054860402105
:1058B0004D4881600021C1604FF480610161002189
:1058C00041618161C16101624162FDF73BFE08B146
:1058D000FCF792FB00BF44482063846300BF0022B2
:1058E00011462720FEF7F6F92720FEF7E6F95CE0DF
:1058F000FFE73E492068884257D100BF0020009052
:105900002C48001D006840F020002A49091D08604D
:105910000846006800F02000009000BF00BF00BFF4
:105920000020009023481038006840F040002149D2
:10593000103908600846006800F04000009000BF81
:1059400000BF4FF484400190022002900020039099
:10595000032004900820059001A92548FDF7C6FF03
:1059600019481838234908608005486000212148FB
:105970008160C1604FF480610161002141618161FA
:10598000C16101624162FDF7DDFD08B1FCF734FB46
:1059900000BF18486063846300BF0022114647209F
:1059A000FEF798F94720FEF788F906B010BD000011
:1059B000007800404038024000100240007C004067
:1059C00000100140000402404064024088060020AC
:1059D00000440040000C024088600240E8060020BD
:1059E0000048004048070020A8070020001401409C
:1059F000001802400808002077B581B0044615461B
:105A000094F83A00202850D1029800B115B901202D
:105A100004B070BD00BF94F83800012801D1022005
:105A2000F6E7012084F8380000BF0298A062A5853F
:105A30000020E063222084F83A001D48616BC863AF
:105A40001C48616B08641C48616BC8640020616B72
:105A5000086502AE32682368191D2B46606BFDF79E
:105A60001AFE00BF002000902068006800902068A7
:105A70004068009000BF00BF00BF002084F83800DD
:105A800000BF2068C06840F480702168C86020684A
:105A9000406940F00100216848612068406940F099
:105AA0004000216848610020B2E70220B0E7000012
:105AB0001188000857880008C187000870477047A0
:105AC0007047000010B5012005490968486202F0DE
:105AD0001DFE03480068406A0249088010BD0000AE
