:020000040800F2
:10000000583F00209D010008F5790008015A0008BA
:100010009D720008D10F0008A9AA00080000000086
:10002000000000000000000000000000FD97000834
:10003000B91E000800000000D97F0008A59D000837
:10004000B7010008B7010008B7010008B7010008B0
:10005000B7010008B7010008BB1E0008B70100087F
:10006000B7010008C11E0008C71E0008B70100083C
:10007000B7010008B7010008B7010008B701000880
:10008000B7010008B7010008B7010008B701000870
:10009000D50F0008B7010008B7010008CD1E000801
:1000A000B7010008B7010008B7010008B701000850
:1000B000B7010008B7010008B7010008B701000840
:1000C000B7010008B7010008B7010008B701000830
:1000D000B7010008B7010008B7010008B9A6000879
:1000E000B7010008B7010008B7010008B701000810
:1000F000B7010008B7010008B7010008B701000800
:10010000B7010008B7010008B7010008B7010008EF
:10011000B7010008B7010008E19E0008B701000818
:10012000D1190008DD190008E9190008B701000815
:10013000B7010008B7010008B7010008B7010008BF
:10014000E10F0008ED0F0008B7010008B701000833
:10015000B7010008AD1C0008B91C0008B701000871
:10016000B7010008B7010008B7010008B70100088F
:10017000B7010008B7010008B7010008000000003F
:10018000B7010008B7010008DFF80CD000F0A8FBA9
:100190000048004719C30008583F00200648804720
:1001A00006480047FEE7FEE7FEE7FEE7FEE7FEE75C
:1001B000FEE7FEE7FEE7FEE7459E0008890100082E
:1001C0002DE9F05F0546002092469B46884606468C
:1001D000814640241BE0284641464746224600F01F
:1001E00078FA53465A46C01A914110D31146184620
:1001F000224600F05FFA2D1A67EB01084F462246AF
:100200000120002100F056FA17EB00094E41201E94
:10021000A4F10104DFDC484631462A464346BDE8E6
:10022000F09F40EA01039B0703D009E008C9121FB1
:1002300008C0042AFAD203E011F8013B00F8013BA0
:10024000521EF9D27047D2B201E000F8012B491ECC
:10025000FBD270470022F6E710B513460A46044663
:100260001946FFF7F0FF204610BD2DE9FE4F8046EE
:1002700081EA0300C00F0C46009021F0004123F0FA
:100280000045B8EB0200A94105D240462146904600
:100290001C460B46024623F00040104347D0270D72
:1002A000C7F30A00C3F30A510290401A0190402894
:1002B0006BDAC3F3130040F4801B0098924620B120
:1002C0000023D2EB030A63EB0B0B01985946C0F1F4
:1002D0004002504600F0EEF906460D46504659469B
:1002E000019A00F006FA10EB08006141002487EA49
:1002F000115284EAE7731A4340D0009A62B3019A1C
:10030000012A4FEA075215DC001B61EB02014FF096
:10031000004202EA0752CDE90042001C41F580117B
:1003200032462B4600F03DFA03B0BDE8F08F404660
:100330002146F9E7001B61EB0201001C41F5801327
:1003400000185B412018A2F5001747EB030140EAB3
:10035000D570B6196D4111E06D084FEA360645EAD1
:10036000C0754FEA0752001B61EB0201001C41F50A
:10037000801149084FEA30000019514132462B469E
:1003800003B0BDE8F04F00F0FDB900980122400035
:100390000023D0EB020263EBE073009821464FEAA2
:1003A000E074B8EB000061EB0401E9E783F000437F
:1003B0005BE781F0004158E72DE9FE4F81EA030435
:1003C00004F0004421F0004100944FF0000B23F0B2
:1003D000004350EA01045ED052EA03045BD0C3F349
:1003E0000A54C1F30A552C44A4F2F3340194A0FB3F
:1003F0000254C1F3130141F48011C3F3130343F416
:10040000801301FB024400FB034E840A970A44EA6E
:10041000815447EA8357A4FB076802958D0A05FBC0
:1004200007854FEA932C04FB0C542705029D4FEAE5
:10043000065847EA1637B5EB08056EEB070C870E32
:10044000920E47EA811742EA8312A7FB0201B6EB3C
:100450000B0164EB00042B0D43EA0C335E1844EBF4
:100460001C50DA465146E7FB0201C5F313044FEA7C
:100470000B3343EA14534FEA0432019C43EA060368
:10048000A4F10C040294009CCDE900B400F089F9B9
:1004900003B0BDE8F08F00200146F9E72DE9F04DEB
:1004A00081EA030404F0004B21F0004514464FF0AC
:1004B000000A23F0004150EA050220D054EA01026C
:1004C0001DD0C5F30A570246C5F31303C1F3130049
:1004D000C1F30A5640F4801543F48013A7EB0608D5
:1004E000101BD64608F2FD3873EB050002D308F165
:1004F000010801E092185B41B8F1000F03DA002017
:100500000146BDE8F08D00204FF480110646844678
:100510000EE0171B73EB050705D3121B63EB0503F6
:1005200006434CEA010C49084FEA300092185B413F
:1005300050EA0107EDD152EA030012D082EA04002A
:1005400083EA0501084305D0101BAB4106D2012206
:10055000002306E000224FF0004302E06FF00102AA
:1005600053101AEB06004CEB085110EB0A0041EB5C
:100570000B01BDE8F04D00F005B90EB5C10F80EAE2
:10058000E0700844CA07002140F233438DE80E00B2
:100590000A460B4600F005F903B000BD0EB540F267
:1005A000334102910021CDE900110A460B4600F0CB
:1005B000F8F803B000BD70B5C1F30A5201F0004570
:1005C0000024C1F3130140F2FF3341F480119A4239
:1005D00001DA002070BD40F233439A42A2F2334266
:1005E00003DC524200F075F800E090402C43F1D05B
:1005F000404270BD00F0004230F000400AD0C10D12
:1006000001F56071C0F3160042EA0151C2084007CB
:1006100011437047002001467047000030B5041EAA
:1006200071F1000404DB4FF00044404264EB01012F
:10063000141E73F1000405DB1C464FF000435242C8
:1006400063EB04038B4208BF824230BD30B5041E09
:1006500071F1000404DB4FF00044404264EB0101FF
:10066000141E73F1000405DB1C464FF00043524298
:1006700063EB0403994208BF904230BD01F0004390
:1006800030B421F0004150EA010206D00A0DA2F573
:100690006072C1F31301002A02DC30BC00207047F5
:1006A000440F44EAC104C100E01830BC00EBC25062
:1006B00000F031B8202A04DB203A00FA02F10020D1
:1006C00070479140C2F1200320FA03F31943904090
:1006D0007047202A04DB203A21FA02F000217047FB
:1006E00021FA02F3D040C2F120029140084319469A
:1006F0007047202A06DBCB17203A41FA02F043EA82
:10070000E07306E041FA02F3D040C2F120029140CA
:100710000843194670470029A8BF7047401C49008C
:1007200008BF20F00100704710B4B0FA80FC00FA56
:100730000CF050EA010404BF10BC704749B1CCF181
:10074000200421FA04F411FA0CF118BF012121430D
:100750000843A3EB0C01CB1D4FEA00614FEA1020C8
:1007600042BF002010BC704700EBC350104400296A
:10077000A4BF10BC7047401C490008BF20F0010016
:1007800010BC704710B5141E73F1000408DA401C49
:1007900041F1000192185B411A4301D120F00100A0
:1007A00010BD2DE9F04D92469B4611B1B1FA81F290
:1007B00002E0B0FA80F220329046FFF77BFF044659
:1007C0000F4640EA0A0041EA0B0153465A460843E5
:1007D00013D0114653EA010019D0C8F14002504627
:1007E000FFF777FF05460E46504659464246FFF74B
:1007F00061FF084305D0012004E020463946BDE8EA
:10080000F08D0020054346EAE0762C4337430A98F2
:100810006305E40AA0EB08000022FD0A44EA4754FD
:100820000A3002D500200146E9E7010510196941A7
:10083000DDE9084500196941BDE8F04DA2E72DE961
:10084000F04D00231A461B1A8A4103DB00200146A3
:10085000BDE8F08DC1F30A52C1F3130141F48015D4
:100860004FF0000BD10702D100186D41521E002736
:10087000044640F2FF11384601EB620A3E468046CC
:10088000024600204FF48011FFF723FFC219714187
:10089000BB1846EB0100B4EB030C75EB000C04D362
:1008A000E41A65EB000517460E46241908F101000D
:1008B0006D4180463428E3DDF91946EB0600091B3B
:1008C000A84103D24FF0FF32134601E00022134645
:1008D0001BEB070046EB0A51BDE8F04DFFF752BF96
:1008E000064C074D06E0E06840F0010394E807007D
:1008F00098471034AC42F6D3FFF74AFCE0C5000835
:1009000000C6000870B58C1810F8015B15F00703DD
:1009100001D110F8013B2A1106D110F8012B03E098
:1009200010F8016B01F8016B5B1EF9D12B0705D4A0
:100930000023521E0DD401F8013BFAE710F8013BE9
:10094000CB1A921C03E013F8015B01F8015B521E05
:10095000F9D5A142D8D3002070BD0000464910B59A
:100960004A6822F440324A604A6843681A434A603F
:1009700001684A6822F480724A6001684A68036923
:1009800042EA03224A6001684A6822F040724A60E3
:1009900001684A6883681A434A6001688A6822F4D9
:1009A00000628A6001688A68C3681A438A60816A43
:1009B0006FF07062D14201688A6822F070628A60CA
:1009C00001688A680CD0836A1A438A6001688A6861
:1009D00022F040528A6001688A68C36A1A4301E0C3
:1009E00022F040528A6001688A6822F002028A601E
:1009F00001688A68037E42EA43028A6090F8201008
:100A0000002901684A680FD042F400624A60016818
:100A10004A6822F460424A6001684A68174C436A97
:100A200004EB43331A4301E022F400624A60016898
:100A3000CA6A22F47002CA620168CA6A838B104CC7
:100A400004EB03531A43CA6201688A6822F40072F5
:100A50008A6001688A6890F8303042EA43228A60EE
:100A600001688A6822F480628A6001688A68406945
:100A700042EA8020886010BD0023014000E0FFFFB3
:100A80000000F0FFB7EE000A80ED000A9FED040AB7
:100A900080ED010A80ED020A80ED030A7047000034
:100AA0000000000093EC033AD2EC031A91EC030A25
:100AB00006F058B930B490F82710012905D0032961
:100AC0005CD190F83310D9B12CE0B0F91A10D0ED08
:100AD000070A00EE101AB8EEC01A9FED290A41EE7F
:100AE000000AC0ED070AB0F91810D0ED080A01EEAF
:100AF000101AB8EEC11A41EE000AC0ED080A3AE039
:100B0000204A3223D168491C91FBF3F403FB1411F2
:100B1000D160192902DA9FED1C0A01E0B2EE040A45
:100B200080ED070A90ED030AD0ED070A1749B8EEE9
:100B3000C01AB4EE000A164B41EE400AC0ED070A97
:100B4000D1ED000A10EE902A9A4206DBD1ED000AA0
:100B5000104A10EE901A914209D290ED021AD0ED8F
:100B6000080AB8EEC11A41EE000AC0ED080A90F872
:100B70002910002902D130BC00F00EB830BC7047FB
:100B80004260653BC00000200000204220010020A0
:100B90000000A0420000A0C270B51E4C05462DED1D
:100BA000048B6068002832D12068012829D194ED97
:100BB000020B9FED199B51EC100B53EC192BFFF717
:100BC000FBFB41EC180B286AFFF714FD53EC182BC4
:100BD000FFF74BFBFFF752FD286294ED040B53EC3B
:100BE000192B51EC100BFFF7E7FB41EC180BE869F0
:100BF000FFF700FD53EC182BFFF737FBFFF73EFD27
:100C0000E8619FED070B84ED020B84ED040BBDEC56
:100C1000048B70BD300000209A9999999999B93F39
:100C2000000000000000000001221021014802F035
:100C300057BE00000000024000221021014802F0CF
:100C40004FBE000000000240704700000122114624
:100C5000014802F045BE00000004024000220121CC
:100C6000014802F03DBE00000004024030B5437868
:100C700004781B021BB2234300EE103A194CB8EE65
:100C8000C00AD4ED000A20EE200A81ED000AC378E4
:100C900085781B021BB22B4300EE103AD4ED000AFC
:100CA000B8EEC00A20EE200A81ED010A43790479EA
:100CB0001B021BB2234300EE103AB8EEC00A20EE2E
:100CC000200ADFED090A81ED020AD0F8060020F0C3
:100CD0007F4000EE100AB8EE400A20EE200A82EDB6
:100CE000000A30BDF401002000401C42704730B5BE
:100CF00004464FF47A7502E0284600F004F8641EBA
:100D0000A4B2F9D230BD70B54FF0E024002265697D
:100D1000A8214843A169A3698B42FCD002D2A1EB70
:100D2000030102E0A5EB030631440A44194682425E
:100D3000F1D370BD10B542780378120212B21A4393
:100D400000EE102A124BB8EEC00AD3ED010A20EED5
:100D5000200A81ED000AC2788478120212B222437E
:100D600000EE102AD3ED010AB8EEC00A20EE200AE8
:100D700081ED010A42790079120212B2024300EEBB
:100D8000102AB8EEC00A20EE200A81ED020A10BD3A
:100D9000F401002010B5FFF757FFFFF7A7FF0AF097
:100DA00077FE08B1802402E00AF0DEFD04460BF075
:100DB0003DF810B144F0400010BD0AF0C9FF2043D7
:100DC00010BD00002DE9FC410746002016460D46E7
:100DD00000900190FFF730FF922000F0BDF806224E
:100DE0006946122000F09AF8FFF71EFF9DF80100F7
:100DF0009DF80010000200B2084300EE100A464CB5
:100E0000B8EEC00AD4ED000A20EE200A85ED000AF3
:100E10009DF803009DF80210000200B2084300EEA6
:100E2000100AD4ED000AB8EEC00A20EE200A85EDC3
:100E3000010A9DF805009DF80410000200B2084365
:100E400000EE100AB8EEC00A20EE200A85ED020A74
:100E5000FFF704FF08226946002000F05FF8FFF763
:100E6000F5FE9DF800000F2830D19DF803009DF895
:100E70000210000200B2084300EE100AD4ED010A8D
:100E8000B8EEC00A20EE200A87ED000A9DF80500A2
:100E90009DF80410000200B2084300EE100AD4EDE1
:100EA000010AB8EEC00A20EE200A87ED010A9DF87B
:100EB00007009DF80610000200B2084300EE100A79
:100EC000B8EEC00A20EE200A87ED020AFFF7B4FE52
:100ED000A22000F041F802226946222000F01EF80C
:100EE000FFF7A2FE9DF800009DF80110C00040EA47
:100EF0005110B0F5806F01DBA0F5006000EE100A24
:100F0000B4EE001AF8EEC00AB3EE070A00EE810A4A
:100F100086ED000ABDE8FC81F401002070B514469E
:100F20000D4640F0800000F017F806E0552000F074
:100F300013F8641E05F8010BE4B2002CF6D170BD65
:100F400010B50C4640F0800000F006F8552000F087
:100F500003F8207010BD000001B582B04FF47A7024
:100F60000090012301AA02A9024803F0F1FD9DF8B7
:100F700004000EBDA404002002784078D20042EAAA
:100F80005010B0F5806F01DBA0F5006000EE100A94
:100F9000B4EE001AF8EEC00AB3EE070A00EE810ABA
:100FA00081ED000A704710B50C46FFF7D5FF2046CB
:100FB000BDE81040FFF7D0BF10B50021034804F092
:100FC000A7FABDE81040152008F022BE1408002042
:100FD000FEE70000014801F00EBE0000C80200203C
:100FE000014801F008BE0000F0020020014801F0B5
:100FF00002BE0000F0020020F0B589B00546DDE930
:101000000E76002000900190059004900820069034
:10101000100A8DF800008DF80120180A8DF80200E2
:10102000380A8DF8040006248DF80570300A8DF812
:10103000060002918DF803308DF8076002E000BFD2
:101040000BF0CEF9284601F0C0FD10B9641EE4B2E1
:10105000F6D201236A4602A9284601F057FC09B0DE
:10106000F0BD00002DE9F04FFF4C47F230512DED5F
:10107000068B83B0A06D401C90FBF1F201FB1200C7
:10108000A06500F09FFB08F0BBFB94ED1C1B94EDEA
:101090001A0BF64806F014FD9FEDF59B94ED1A0B24
:1010A00053EC192B51EC100BFFF786F941EC100BA8
:1010B00009F0F6FE51EC100BFFF7E0FA94ED1A0B75
:1010C00008EE100A53EC192B51EC100BFFF774F9D2
:1010D00041EC100B09F048FF51EC100BFFF7CEFA72
:1010E00094ED010A01EE900A4FF47A71F8EEC00A0D
:1010F000B8EEC00A60EE880A20EE210ABDEEE01AC2
:10110000BDEEC00AD4ED020AB8EEC00AB8EEE02A7D
:10111000F8EEE00A02EE080ABDEEC00A10EE107A00
:10112000B8EEC10A00EEA10ABDEEC00A10EE106AC8
:10113000C4E90B6720694843FFF71FFA814641EC79
:10114000180B02916069FFF718FA804641EC190B01
:10115000C648019190ED100B9FEDC71B51EC100B91
:1011600053EC112BFFF728F9054653EC192B00918E
:10117000FFF722F9FFF71FFAFFF7FFF941EC1A0B0F
:1011800007EB060BABEBCB00FFF7F7F994ED189BE1
:1011900053EC192BFFF710F953EC1A2BFFF765F8F6
:1011A00053EC182BFFF761F8FFF705FAE06102999D
:1011B000824641EC189B019941EC118B009953EC4C
:1011C000112B41EC105B51EC100BFFF7F5F8FFF71A
:1011D000F2F9FFF7D2F941EC1A0BF01BC0EBC0009B
:1011E000FFF7CBF953EC192BFFF7E6F853EC1A2B6A
:1011F000FFF73BF853EC182BFFF737F8FFF7DBF955
:101200002062029941EC189B019941EC108B0099E6
:1012100053EC102B41EC115B51EC110BFFF7CCF8A8
:10122000FFF7C9F9FFF7A9F941EC1A0BCBEBCB009B
:10123000FFF7A3F953EC192BFFF7BEF853EC1A2B69
:10124000FFF713F853EC182BFFF70FF8FFF7B3F97C
:101250006062029941EC189B019941EC118B009955
:1012600053EC112B41EC105B51EC100BFFF7A4F881
:10127000FFF7A1F9FFF781F941EC1A0BB81BC0EB9E
:10128000C000FFF77AF953EC192BFFF795F853ECF0
:101290001A2BFEF7EAFF53EC182BFEF7E6FFFFF7D9
:1012A0008AF9A0625046FFF768F941EC180BA06C70
:1012B000FFF763F941EC100BB3EE042AB0EE481AC5
:1012C000F0EE681A00F050FD51EC100BFFF773F9C7
:1012D000A064206AFFF751F941EC180BE06CFFF7AE
:1012E0004CF941EC100BB3EE042AB0EE481AF0EEC4
:1012F000681A00F039FD51EC100BFFF75CF9E0645F
:10130000606AFFF73AF941EC180B206DFFF735F9E9
:1013100041EC100BB3EE042AB0EE481AF0EE681A56
:1013200000F022FD51EC100BFFF745F92065A06A93
:10133000FFF723F941EC180B606DFFF71EF941EC44
:10134000100BB3EE042AB0EE481AF0EE681A00F063
:101350000BFD51EC100BFFF72EF96065A06CFFF749
:101360000CF941EC180B4648B0F90000FFF705F9FD
:1013700041EC100BB0EE481AF0EE681A414806F046
:101380009FFBE06CFFF7F9F841EC180B3C48243068
:10139000B0F90000FFF7F1F841EC100B3948B0EE5E
:1013A000481AF0EE681A803006F08AFB206DFFF7CD
:1013B000E4F841EC180B32484830B0F90000FFF770
:1013C000DCF841EC100BB0EE481AF0EE681A2E482B
:1013D00006F076FB606DFFF7D0F841EC180B28485B
:1013E0006C30B0F90000FFF7C8F841EC100B1F4853
:1013F000B0EE481AF0EE681A803806F061FB00F093
:10140000BBFF4FF40078032847D000F0B5FF1D4F15
:101410001D4D07F1800404F5807191ED100BB8B3F8
:1014200051EC100BFFF7C7F895ED100B06B251EC1D
:10143000100BFFF7C0F894ED100B05B251EC100B38
:10144000FFF7B9F897ED100B04B200BF51EC100B89
:10145000FFF7B1F8CDE9005602B2234641460B48EA
:10146000FFF7CAFD03B014E048000020501300202D
:101470000000002047DF913F0000000000003040E6
:10148000501400205011002050120020F0020020C3
:101490000BE0BDEC068BBDE8F08F0020009003460A
:1014A0000246019041461748DAE79FED178B51EC51
:1014B000100B53EC182BFEF77FFFFFF77CF895ED30
:1014C000100B06B253EC182B51EC100BFEF774FF07
:1014D000FFF771F894ED100B05B253EC182B51EC9B
:1014E000100BFEF769FFFFF766F897ED100B04B2DB
:1014F00053EC182B51EC100BFEF75EFF41EC100B78
:10150000A4E70000C8020020000000000000E03F47
:1015100070B58AB000210125CDE906150E260446D6
:1015200003911248CDE9085600910191029184423D
:1015300009D1049105916946204601F04BFA022138
:101540000A4801F0D1F90A48844209D1CDE904568C
:101550006946204601F03EFA1021054801F0C4F921
:10156000204601F015FE0AB070BD0000C802002040
:10157000F00200202DE9F0476F4A00212DED048B89
:1015800013460C4692F82A0093F82E306B4DB0F1BA
:1015900000084FF4FA7C4FF4617A0F4601D133B161
:1015A00051462F8092F82B60654836B107E02888B5
:1015B0004FF4AF61401C2880F4E743B101462F800F
:1015C000914692F82C209FED5F8B52B119E029884B
:1015D000491C89B22980614501D20146F0E75B4987
:1015E000EEE7044616B1B8F1000F0AD1584C084690
:1015F000FEF7C3FF53EC182BFEF7DEFEFEF7DBFF12
:10160000014699F82D0080B9544616B1B8F1000F83
:101610000BD140F276240846FEF7AFFF53EC182BAF
:10162000FEF7CAFEFEF7C7FF01464A484A4B90ED57
:10163000000A10EE102A9A4206DB90ED000A474A93
:1016400010EE100A904214D299F8302048469FEDCF
:10165000440A2AB9D0ED080A70EEC00AC0ED080AA3
:1016600090F831202AB9D0ED080A30EE800A89EDD1
:10167000080A99F836204E46012022B9394AD76324
:10168000C5E90470686396F8372012B9C5E9040704
:101690006F63B6F902504FF4E16205F56170B0EE88
:1016A000008AB2EE000A904202D8F0EE408A01E0D1
:1016B000F0EE488AB6F9040000F56170904201D856
:1016C000B0EE408A09B9F0EE408A0CB9B0EE408A1B
:1016D0000846FEF752FF41EC190B2846FEF74DFF76
:1016E00041EC100BB0EE682AB0EE491AF0EE691A20
:1016F00000F03AFB51EC100BFEF75DFF70802046C6
:10170000FEF73BFF41EC190BB6F90400FEF735FF7D
:1017100041EC100BB0EE482AB0EE491AF0EE691A0F
:1017200000F022FB51EC100BFEF745FFB080BDEC42
:10173000048BBDE8F08700001C1D0020480000203D
:101740007CFCFFFF666666666666E63F88FAFFFF1A
:101750008AFDFFFF200100200000A0420000A0C27F
:101760009A99193EE017002070B5114800212DED1F
:10177000028B01610F4D012141616868FEF7FDFE9A
:101780009FED0D8B53EC182BFEF716FEFEF713FFA3
:101790000B4C60802868FEF7F0FE53EC182BFEF728
:1017A0000BFEFEF708FFA080BDEC028B70BD0000B1
:1017B00048000020581D0020C3F5285C8FC2F53F6B
:1017C0001C1D002010B50C4C0020A0610B48407C73
:1017D000012802D0032803D004E0FFF7C5FF01E091
:1017E000FFF7C8FE0648B0F902000A30142801D9F4
:1017F0000120A06110BD000048000020581D0020FD
:101800001C1D00204988027C49BA20F81210017C76
:10181000491CC9B20174032911D9B0F90010B0F9FB
:101820000220B0F906301144B0F904201A441144E2
:10183000CA1701EB9271891041830021017470472E
:1018400010B514221549164807F07AFF00F02CF85D
:1018500058B100F02BFD01281ED10AF069F800F004
:10186000A3F8BDE8104000F0A9B80C480D494FF6A8
:10187000FB220160142181800021C18091FBF2F3E1
:101880000182C18101814181818102FB1311418269
:10189000BDE8104008F084B810BD0000401F0020D3
:1018A00000000A08F3F2F1F91148124A0168914266
:1018B0001CD18188142919D1B0F90810B0F90A2077
:1018C000B0F910301144B0F90C201A441144B0F9A9
:1018D0000E20B0F9120011444FF6FB2291FBF2F3F7
:1018E00002FB1311884201D101207047002070478C
:1018F000401F0020F3F2F1F92A49088C00284DD04E
:10190000002228483C3880F828204A8C002A47D0FA
:101910005FF0000200F8292F898C41F30002521C6D
:10192000427041F34002521C827041F38002521C0B
:10193000C27041F3C002521C027141F30012521CEA
:10194000427141F34012521C827141F38012521CC9
:10195000C27141F3C012521C027241F30022521CA8
:10196000427241F34022521C827241F38022521C87
:10197000C27241F3C022521C027341F30032521C66
:10198000427341F34032521C827341F38032521C45
:1019900041F3C031C273491C017470470122B0E7A2
:1019A0000122B7E7581D00200348C18821F0020139
:1019B000C18007F0F5BF0000401F00200348C18828
:1019C00021F00401C18007F0EBBF0000401F0020A0
:1019D000014801F049BC000054050020014801F015
:1019E00043BC0000540A00202DE9F05FA748A84B33
:1019F000A84CC06CA64DA74EA54F0068A449DFF8BF
:101A00009492DFF88CA2DFF88CB2DFF884E2A14A6E
:101A1000483B603418351836303F09F178090AF12F
:101A2000300A4FF4006C0BF1300BAEF1180E884207
:101A300023D99749543926E0A84233D14FF02008E2
:101A40000AE0504535D1E04606E000BF4FF40018EB
:101A500002E000BF4FF0006811EA080F7CD08C490B
:101A6000884253D9904205D0984203D0A04201D079
:101A7000A8422FD14FF0200C45E08649A83188427A
:101A800003D983495839096805E0824948318842B9
:101A90008149F8D949689042D0D09842CED0A0422E
:101AA000CCD0C9E7B042CED0B842CCD04845CAD09D
:101AB000C7E75845CAD07045C8D0DFF8D88108F1CB
:101AC00090084045C2D0DFF8C88108F14808404579
:101AD000C0D1BBE7B04216D0B84214D0484512D0AE
:101AE000504510D0584509D0704507D0694990310C
:101AF000884203D066494831884202D14FF4001C25
:101B000001E04FF0006C62484C382AE06149A8318E
:101B1000884229D9904205D0984203D0A04201D0F2
:101B2000A84202D14FF0200C19E0B04217D0B842C1
:101B300015D0484513D0504511D0584509D07045AF
:101B400007D054499031884203D0514948318842E6
:101B500003D14FF4001C02E095E04FF0006C4C48BC
:101B60005038C0F800C052E04A494831884227D96D
:101B7000904205D0984203D0A04201D0A84202D1A1
:101B80004FF0200C18E0B04216D0B84214D04845AF
:101B900012D0504510D0584509D0704507D03D4966
:101BA0009031884203D03A494831884202D14FF4FB
:101BB000001C01E04FF0006C3748C0F80CC026E074
:101BC000904205D0984203D0A04201D0A84202D151
:101BD0004FF0200C18E0B04216D0B84214D048455F
:101BE00012D0504510D0584509D0704507D029492A
:101BF0009031884203D026494831884202D14FF4BF
:101C0000001C01E04FF0006C2348C0F808C0234CD2
:101C1000207880070CD5207820F0020020702078F2
:101C200040F004002070012211461D4801F058FECA
:101C300060781C4D80070CD5607820F00200607041
:101C4000607840F00400607001221021284601F005
:101C500047FEA07880070CD5A07820F00200A07085
:101C6000A07840F00400A07001221021284601F065
:101C700037FE0AF0B5F92078400704D50A48016814
:101C800041F001010160BDE8F09F0000A4040020C4
:101C900058640240106002400060024018010020B9
:101CA0000004024000000240103C0140014801F0E5
:101CB000DBBA0000B40A0020014801F0D5BA0000E8
:101CC0009409002001681823CAB2103AB2FBF3F25B
:101CD000054B6FF30901032A9B5CC36500D9091DFD
:101CE000816508467047000036C4000810B50146FB
:101CF00000208B698A6A4FF0C07453B1B3F5005F5E
:101D000015D072B1012A0CD0022A0AD0032A09D1B7
:101D100004E01AB1012A06D0022A03D1C96AC90116
:101D200000D5012010BDC96AA142FAD010BD002A19
:101D3000F7D0012AF2D0022AF3D0032AF3D010BD43
:101D400030B50468256825F4802525600468636043
:101D50008368402B036803D099600068C26030BD7F
:101D60009A600068C16030BD70B52DED068BB0EE95
:101D700041AAF0EE61AAB0EE409AF0EE609AB0EEA1
:101D8000428A53EC1A2B51EC190BFEF70FFB044659
:101D90000D4618EE100AFEF72DFC41EC100B45EC39
:101DA000124B53EC102B51EC120BFEF74FFC08D8E2
:101DB00018EE100AFEF71EFC53EC192BFEF7F9FA89
:101DC00018E0B1EE480A10EE100AFEF713FC41ECE1
:101DD000110B45EC104B53EC112B51EC100BFEF793
:101DE0001DFC0CD818EE100AFEF704FC53EC192B5E
:101DF000FEF73BFA41EC100BBDEC068B70BDB0EE6C
:101E00004A0AF0EE6A0AF7E7F0B589B004462021E5
:101E10006846FEF71FFA0E490022885C612804D04C
:101E2000521C1E2AF9DB09B0F0BD10466D4602F1C6
:101E3000080305E08E5C171A303E45F82760521CF7
:101E40009A42F7DB2146284605F06AFBEBE70000E3
:101E5000701000207047000030B5134A6424D36826
:101E60005B1C93FBF4F504FB1533D3600C8864BA58
:101E700004804C8864BA44808C8864BA8480C988A1
:101E800049BAC180094800889080002003B9908039
:101E9000D1889388C91A537891FBF3F19160002996
:101EA00000DA906030BD000060010020A61D002017
:101EB000098849BA018170477047012001F020BCB0
:101EC000082001F01DBC102001F01ABC202001F0F8
:101ED00017BC7047002229B101291AD002291BD052
:101EE0004FF440720E490B6823F440730B600B688B
:101EF00013430B600A6822F0F8020A600A680223A2
:101F000003EBC00002430A60086840F480300860B8
:101F100070474FF48072E5E74FF40072E2E700008B
:101F2000103C02401348016889050FD5016821F46F
:101F300000710160016841F400610160016821F4F1
:101F400000610160016841F40071016001684905A8
:101F50000FD5016821F480610160016841F480516E
:101F60000160016821F480510160016841F48061E1
:101F700001607047003C024008490A6822F4407240
:101F80000A600A6842F004020A600A684FF480336B
:101F900043EA002002430A6070470000103C024000
:101FA000064A136823F440731360136813601368C0
:101FB00043F001031360017070470000103C0240C1
:101FC000084910B50C6824F440740C600C6844F4A3
:101FD00040740C600C6844F001040C6002604360C3
:101FE00010BD0000103C0240074A136823F4407300
:101FF0001360136843F480731360136843F00103A4
:102000001360018070470000103C0240074A1368CB
:1020100023F440731360136843F400731360136870
:1020200043F001031360016070470000103C024060
:1020300017490868C206174805D5C26942F0100260
:10204000C26110220A600A68920605D5C26942F090
:102050000802C26120220A600A68520605D5C269D8
:1020600042F00402C26140220A600A68120605D5E5
:10207000C26942F00202C26180220A600A689207C5
:1020800005D5C26942F02002C26102200860704793
:102090000C3C02401C0F002070B511490446002082
:1020A000C86101F023FC06460E4D09E0601C07D014
:1020B00024B101F01BFC801BA04201D9032070BD9C
:1020C0002868C003F2D42868C00701D00120286026
:1020D000286810F0F200F2D0FFF7AAFF012070BDCF
:1020E0001C0F00200C3C02402DE9F041464C0F46ED
:1020F0002DED028B05226169491C91FBF2F302FB75
:102100001311616121694FF4FA62491C91FBF2F3EA
:1021100002FB1311216107F09DFB94ED061B94ED6A
:102120000A0B3A4805F0CCFC94ED0E0B51EC100B69
:1021300081F0004141EC100B344890ED101B8030D1
:1021400005F0BEFC344D9FED320B284685ED000BAB
:102150009FED320B85ED020B94ED081B94ED0C0BFB
:1021600005F0AEFC9FED2F0B05F18006304686EDA5
:10217000000B95ED121B94ED100B05F0A1FC9FEDEB
:102180002B0B05F58075284685ED000B9FED290B7F
:1021900085ED020B9FED290B85ED040B96ED121BCF
:1021A00094ED140B05F08CFC05F5807090ED100B90
:1021B00051EC100BFEF7FFF995ED100B064651ECB4
:1021C000100BFEF7F8F901463246384600F0DAF80F
:1021D0009FED1C8B94ED0A0B53EC182B51EC100B5C
:1021E000FEF7EAF8FEF7E7F9A06094ED060B53EC72
:1021F000182B51EC100BFEF7DFF8FEF7DCF96060EE
:10220000BDEC028BBDE8F081C0000020601600200C
:102210000000000000003940E0140020FCA9F1D2C9
:102220004D6250BF00000000000014C0000000001C
:10223000000008407B14AE47E17A743F00000000C4
:10224000000000000000000000005940064900B5F1
:10225000C98801228240114204D0FFF725FB08B152
:10226000012000BD002000BD401F0020024A138A4B
:102270000380D08908807047401F002010B500F00F
:1022800015F8094C18B12078012803D006E0012088
:10229000207003E000F00AF8012801D0002010BDF2
:1022A00000202070012010BD2E00002010B501215B
:1022B000044801F009FB012801D0012010BD0020D5
:1022C00010BD0000000002402DE9F043294A2849D2
:1022D00092F91060087892F9113008B90E704B70BD
:1022E0002448157C3C38032480F82650527C80F822
:1022F000272091F900704FF004084FF002094FF0C9
:10230000000CBD4215D0012D04D0022D05D0032DA7
:1023100011D105E080F824400DE080F824800AE027
:10232000022F03D0012580F8245004E080F8249087
:1023300001E080F824C091F90150AA4211D0012A8D
:1023400004D0022A05D0032A0DD105E080F82540EB
:1023500009E080F8258006E0022DF7D180F825906D
:1023600001E080F825C00E704B70BDE8F0830000DE
:102370005A010020581D00200148007870470000D5
:10238000480100201CB5002340F2FF1403280CD0A4
:1023900080B10E48008800B2CDE9000313B20AB242
:1023A00021460B48FEF728FE1CBD00930193002335
:1023B0001A46F5E7009302EBD270019340F34F0306
:1023C00001EBD17040F34F02EAE70000D401002096
:1023D000C802002070B50446002540682E46A06063
:1023E000088840BA6060888840BA2080488840BA2F
:1023F00060806068A168401A2061206941F64C51F4
:10240000C84206DAE06B401CE063206900F500502A
:102410000CE0206941F64C51884206DDE06B401E1D
:10242000E0632069A0F5005000E020692062FFF71A
:10243000A3FF002118B9E06B002800DAE1636068AF
:10244000E26B00EB4230E0606068E269DFED160AA3
:10245000801A00EE100AE06BB8EEC00A60EE200AA7
:102460004FF4B472504300EE100A9FED101AB8EE0C
:10247000C00A00EE810A84ED110A226A207E04EB74
:102480008003401C20765A62207E062800D12176E7
:1024900004EB8500406A6D1C0644062DF8DB06201F
:1024A00096FBF0F0206470BD0000B44300000039DA
:1024B00010B52DED068B9FED707B9FED718BB0EE0F
:1024C000486AF0EE686AB0EE485AF0EE685A9FED3E
:1024D0006E9BB0EE483AF0EE683AB0EE494AF0EE44
:1024E000694AB0EE482AF0EE682AB0EE481AF0EEDB
:1024F000681A9FED670B684805F098FC6648B0EED7
:10250000497AF0EE697AB0EE486AF0EE686AB0EEA9
:10251000485AF0EE685AB0EE494AF0EE694AB0EE19
:10252000483AF0EE683AB0EE482AF0EE682AB0EE8B
:10253000481AF0EE681AB0EE480AF0EE680A8030E9
:1025400005F074FC9FED557BB0EE486AF0EE686ACA
:10255000B0EE485AF0EE685A9FED52ABB0EE483AF2
:10256000F0EE683AB0EE4A4AF0EE6A4AB0EE482A17
:10257000F0EE682AB0EE481AF0EE681AB0EE480A9B
:10258000F0EE680A494805F051FC4848B0EE497A37
:10259000F0EE697AB0EE486AF0EE686AB0EE485A3A
:1025A000F0EE685AB0EE494AF0EE694AB0EE483AA9
:1025B000F0EE683AB0EE482AF0EE682AB0EE481A1B
:1025C000F0EE681A9FED3A0B803005F02FFCB0EE6C
:1025D0004A7AF0EE6A7AB0EE486AF0EE686AB0EED7
:1025E000485AF0EE685AB0EE4A4AF0EE6A4AB0EE47
:1025F000483AF0EE683AB0EE482AF0EE682AB0EEBB
:10260000481AF0EE681A9FED2C0B2D4805F00EFCD1
:102610002B48B0EE4A7AF0EE6A7AB0EE486AF0EEF5
:10262000686AB0EE485AF0EE685AB0EE4A4AF0EEE8
:102630006A4AB0EE483AF0EE683AB0EE482AF0EE58
:10264000682AB0EE481AF0EE681AB0EE480AF0EECA
:10265000680A803005F0EAFB08F0C4F919481A4A04
:10266000B0F90210D161A2F14801B0F90000C861CF
:10267000BDEC068B10BD0000000000FCFFFF9F4179
:10268000000000000000000000000000004CDD40E1
:1026900000000000000039C0E0140020000000002D
:1026A00000DBDA40000000000058DB40E0150020AD
:1026B000000000000000344000000000000059400D
:1026C000E0160020C00000202818002078B5002463
:1026D000009490F83C20012A19D0012280F83C2077
:1026E0000A6807230568092A13D9EE680A3A02EB3B
:1026F000420293409E43EE600B788A680A3B03EBEC
:1027000043039A400368DD682A43DA6010E0022040
:1027100078BD2E6902EB420293409E432E610B78F6
:102720008A6803EB43039A4003681D692A431A61D0
:102730004A681F23072A13D205686E6B521E02EBEC
:10274000820293409E436E630B790A885B1E92B2AD
:1027500003EB83039A4003685D6B2A435A6327E0C7
:1027600005680D2A12D22E6BD21F02EB8202934013
:102770009E432E630B790A88DB1F92B203EB83031F
:102780009A4003681D6B2A431A6311E0EE6A0D3A02
:1027900002EB820293409E43EE620B790A880D3B66
:1027A00092B203EB83039A400368DD6A2A43DA623C
:1027B000164B0568144A9D4206D10D68122D03D1AF
:1027C000556845F48005556005689D4218D10B6831
:1027D000102B01D0112B13D1536843F40003536025
:1027E000096810290CD10A490A4A0968B1FBF2F1BB
:1027F00001EB8101490000E0491E00910029FBD155
:1028000080F83C40002078BD0023014000200140BA
:102810001800002040420F0070B504004FF0000582
:1028200003D0206C002610B107E0012070BD2046C7
:1028300000F01CF8666484F83C60206CC00610D47C
:10284000206C20F4885040F0020020642046FEF7FF
:1028500085F86664206C20F0020040F001002064DE
:1028600000E0012584F83C60284670BD10B586B0B4
:10287000044614216846FDF7EDFC174B2268002141
:1028800016489A4209D1016841F4807101600068DC
:1028900000F48070059006B010BD114B9A42FAD139
:1028A000026842F480620260006800F48060059073
:1028B0000A481438026842F020020260006800F002
:1028C00020000590181500900320CDE9010169460C
:1028D000044800F021FFDEE70020014044380240B8
:1028E000002201400014024090F82020012A07D065
:1028F000022A05D0416A41F48021416201207047DB
:10290000006842690A43426100207047F0B590F8C0
:1029100020500468A468012D05D0022D03D0416A1F
:1029200041F4802153E014F0406F01D1E5004BD514
:10293000C4F30164022C03D9416A41F4000146E06A
:102940000125A5401D608D684FF4C0739DB1CE6810
:1029500035434E6845EAC605066803EB0417F55192
:102960004FF4C275076805EB04150E697E51097DA9
:10297000012905D009E00E88CD6845EA4655EBE708
:1029800001684E5946F480764E511179D2F80550BF
:102990004FF4C67641EA0525016806EB04168D5111
:1029A0001178D2F801204FF4C47541EA022102687F
:1029B00005EB04155151006803EB0411425842F035
:1029C000010242500020F0BD416A41F40011416211
:1029D0000120F0BD10B590F82020012A07D0022A6E
:1029E00005D0416A41F480214162012010BD3B487D
:1029F000D0F8002242F00102C0F80022D0F80022F4
:102A000022F47C52C0F80022D0F800224B6A42EA3D
:102A10000322C0F800220A7D02F01F0301229A401F
:102A2000D0F81C329343C0F81C32CB69B3B9D0F84C
:102A30000C329343C0F80C328C894B6864F31F430B
:102A40004C6900EBC404C4F840320C890B6864F391
:102A50001F434C6900EBC404C4F84432CB69012B1A
:102A600016D1D0F80C321343C0F80C320C884B68E6
:102A700064F31F434C6900EBC404C4F840320C8972
:102A8000CB6864F31F434C6900EBC404C4F84432C0
:102A90008B69002BD0F804320ED01343C0F80432F7
:102AA0000B69002BD0F8143208D01343C0F814324D
:102AB000096A012904D008E09343EFE79343F5E75F
:102AC000D0F81C121143C0F81C12D0F8001221F0EB
:102AD0000101C0F80012002010BD00000064004099
:102AE000704730B590F82040012C05D0022C03D05F
:102AF000416A41F480215DE00468002955D02469D1
:102B0000A40754D04FF4D874056804EB01142D5970
:102B100015F00405956005682D594ED0ED085560F7
:102B200005682C59C4F34004D4604FF4DA74056886
:102B300004EB01142D5905F00F05156105682D5999
:102B4000C5F30725956105682C59240C54614FF491
:102B5000DC72046802EB0112A4581C700468A458CB
:102B6000240A5C700468A458240C9C700468A25861
:102B7000120EDA704FF4DE72046802EB0112A458F0
:102B80001C710468A458240A5C710468A458240CBD
:102B90009C710468A258120EDA71006881B1016953
:102BA00041F020010161002030BDE468A8E7416ADE
:102BB00041F400114162012030BD6D0D1560AFE799
:102BC000C16841F02001C160EDE70246002092F8A3
:102BD0002010012901D002290CD111688A68520104
:102BE00000D501208A68120100D5401C8968C900FF
:102BF00000D5401C70472DE9F05F054600680024B1
:102C00004669D0F804908768D0F80CB0D0F810A0CE
:102C1000D0F81880F10748D0F90714D0012181605D
:102C2000B80703D5284600F0E0FA0CE0780702D593
:102C30004FF4006407E0380702D54FF4805402E0F7
:102C4000284600F0D1FAF80516D529684FF48070AF
:102C50008860B80503D5284600F0C9FA0CE078056D
:102C600002D544F4005407E0380502D544F480440A
:102C700002E0284600F0BAFAF80316D529684FF4A6
:102C800080308860B80303D5284600F0B2FA0CE023
:102C9000780302D544F4004407E0380302D544F435
:102CA000803402E0284600F0A3FA300707D55FEA37
:102CB000CB6004D52968102044F40074C860700704
:102CC0004FF0080707D55FEA0B7004D52868C76086
:102CD000284600F0A1F9B00706D52868C06880072B
:102CE00002D0284600F09AF9700607D55FEACA605C
:102CF00004D52968102044F480640861B00607D523
:102D00005FEA0A7004D528680761284600F0EAF9EE
:102D1000F00606D528680069800702D0284600F032
:102D2000E3F9B00308D55FEAC96005D5296810202A
:102D30004860284600F02AFAF00307D55FEA0970D8
:102D400004D528684760284600F054FA300446D578
:102D50005FEA497040D5F00504D55FEAC87001D03C
:102D600044F00104B00504D55FEA887001D544F051
:102D70000204700504D55FEA487001D544F00404EC
:102D8000300529D518F0700F26D008F070004028C3
:102D900015D006DC102809D020280AD0302816D1FA
:102DA0000AE050280ED0602811D10EE044F008044B
:102DB0000DE044F010040AE044F0200407E044F081
:102DC000400404E044F0800401E044F48074286886
:102DD000816921F070018161296804204860002C1C
:102DE00005D0686A204368622846FFF779FEBDE88F
:102DF000F09F70B5040003D094F8200010B104E0F7
:102E0000012070BD204600F081F82068016821F0A3
:102E10000201016000F06AFD0546052604E000F0AD
:102E200065FD401B0A2811D8206840688007F6D449
:102E30002068016841F00101016000F057FD05467E
:102E40000BE000F053FD401B0A2806D9606A40F4ED
:102E50000030606284F82060D2E720684068C007D4
:102E6000EFD0207E0128206801683DD021F080014C
:102E70000160607E01282068016838D021F040019F
:102E80000160A07E01282068016833D021F0200174
:102E90000160E07E0128206801682ED041F0100119
:102EA0000160207F01282068016829D021F00801F5
:102EB0000160607F01282068016824D021F00401AE
:102EC0000160D4E902010843D4E904121143084324
:102ED0006168491E08432168C861002060620120C2
:102EE00084F82000002070BD41F08001C0E741F06F
:102EF0004001C5E741F02001CAE721F01001CFE70A
:102F000041F00801D4E741F00401D9E7F0B587B0FA
:102F1000044614216846FDF79DF93A4B3A48DFF81C
:102F2000E0E01968D4F800C0374A032502260927D3
:102F300010300024491CF44522D11960012907D121
:102F4000016841F000710160006800F000700590B8
:102F5000106840F0080010601068CDE9005600F0DD
:102F60000800CDE9047069462848CDE9024500F023
:102F7000D3FB00220621142001F066F814203AE069
:102F8000DFF88CE0F44538D1D0F800C04CF0806C0C
:102F9000C0F800C0D0F800C001290CF0806CCDF85A
:102FA00014C0196007D1016841F000710160006828
:102FB00000F000700590106840F00200106010688A
:102FC00002AB00F0020005906020CDE9000683E826
:102FD000B00069460F4800F09FFB00220621402008
:102FE00001F032F8402001F022F800221146412081
:102FF00001F02AF8412001F01AF807B0F0BD0000F6
:10300000006400400000002030380240000C024004
:1030100000680040000402407047000000B52349EA
:1030200087B0884220D1224B6A460021FFF759FD24
:10303000002819D10098A0F20120072814D2DFE857
:1030400000F0040B15181D232B0019491948FEF731
:10305000D9FB1749184805E015491848FEF7D2FB77
:103060001349174806F090FD07B000BD10491548F8
:1030700001E00F491448FEF7C5FBF5E713480C497A
:10308000B0F90020124804E012480949B0F90020C4
:103090001148FFF79FF9E7E70549104804F09DFF45
:1030A00003490F4806F0A2FDDEE70000C802002039
:1030B0001E00002050140020B01D002074140020B9
:1030C000D41D002098140020BC140020C000002053
:1030D000E0170020C2000020281800201C1F00203C
:1030E000F81E00207047000000B5214987B08842D3
:1030F0001ED1204B6A4601211D48FFF7F2FC002833
:1031000016D1009840F20322A0F2032190421DD074
:1031100010DCB0F5A07F24D0A0F5807041381BD022
:10312000C02810D0C12803D112491348FEF76AFB0A
:1031300007B000BD01290CD03E29F9D10D490F4837
:10314000FEF7B6FEF4E70B490D48EFE709490D48D5
:10315000ECE708490C48E9E706490848FEF77CFE19
:10316000E6E70449A1F10A000088FEF773FEDFE7F5
:10317000F00200202600002074140020A61D00206C
:103180005014002098140020BC1400207047000048
:1031900070B5044690F82000012804D0606A40F41D
:1031A0000020606218E0022084F820002068016896
:1031B00021F00101016000F099FB05460EE000BF1F
:1031C00000F094FB401B0A2808D9606A40F40030E4
:1031D0006062052084F82000012070BD20684068EE
:1031E000C007EDD1606270BD70477047704770478F
:1031F00070477047704710B5040002D0607910B175
:1032000006E0012010BD00202071204600F006F8E5
:103210000220607101206071002010BD08B50068B7
:103220000649884208D10648016841F4805101608E
:10323000006800F48050009008BD0000003002409B
:103240003038024090F83510022903D080214165C2
:1032500001207047052180F835100068016821F0D1
:1032600001010160002070472DE9F84304464FF04A
:103270000009CDF8009063484FF41651A56D006821
:10328000B0FBF1F72E6894F85C10082000FA01F109
:1032900031420FD021680A6852070BD50A6822F024
:1032A00004020A6094F85C108840A860606D40F0E9
:1032B0000100606594F85C104FF0010808FA01F015
:1032C000304208D021684969090604D5A860606DBC
:1032D00040F00200606594F85C10042088403042A1
:1032E00008D021680968890704D5A860606D40F09E
:1032F0000400606594F85C1010208840304218D0BB
:1033000021680968090714D5A86020680168490385
:1033100004D50068000308D5A16C07E00168C90561
:1033200003D4016821F008010160216C09B1204635
:10333000884794F85C1020208840304231D02168C2
:103340000968C9062DD5A86094F8350005282068BD
:10335000016806D0490347D5006800031DD4616C9D
:103360001CE021F0160101602068416921F0800114
:103370004161206C08B9A06C20B12068016821F07F
:103380000801016094F85C103F208840A86084F830
:10339000349084F83580216D1FE0E16B09B120463F
:1033A0008847606D00282BD0606DC00714D00520C1
:1033B00084F835002068016821F00101016000985F
:1033C000401C0090B84203D820680068C007F6D1BE
:1033D00084F8349084F83580E16C002910D001B075
:1033E0002046BDE8F04308470168C905D5D4016807
:1033F00021F01001016084F8349084F83580CCE726
:10340000BDE8F883180000202DE9F041044600F0E3
:103410006DFA06465CB1002584F83450022084F829
:1034200035002068016821F0010101600DE00120F4
:10343000BDE8F08100F05AFA801B052805D920204C
:103440006065032084F83500F2E720680068C00753
:10345000F0D12268116820480140D4E901031843E3
:10346000D4E903363343184363691843A369184307
:10347000E3691843236A18430843616A042903D1A6
:10348000D4E90B1319430843106020684069666A49
:1034900020F0070130460E43012704280CD1A06A12
:1034A0000643E06A40B12046FEF720FC20B14020F0
:1034B000606584F83570BAE7206846612046FEF7FB
:1034C00001FC94F85C203F2191408160656584F89F
:1034D00035700020ACE700003F8010F070B5044666
:1034E00090F83400002501280CD0012084F8340025
:1034F00094F835600020012E06D084F834000225AF
:10350000284670BD022070BD022684F835606065D3
:103510002046FEF715FC2068016841F001010160BA
:10352000EEE7000070B5044600F0E0F90546601CC7
:1035300002D004480078044400F0D8F9401BA042AF
:10354000FAD370BD0C0000202DE9F0470446224854
:103550000F46017E01290AD00121804601764CF2F6
:1035600050394846FEF798FD020003D02FE00220B4
:10357000BDE8F0874FF0FF3038602068174D012814
:1035800001D0A6681CE0207C6168FEF7F5FC484687
:10359000FEF782FD0246286820F00400286014E04F
:1035A000217C3046FEF796FC4846FEF775FD02008A
:1035B000286820F0FA00286001D03E6005E0761C03
:1035C000D4E902100844B042EAD8FEF7ABFC00216F
:1035D00088F818101046CBE71C0F0020103C024062
:1035E0000348016841F0004101600020704700007D
:1035F000103C02402DE9F0471B4E05461446307E34
:103600001F468946012808D0012030764CF25038F8
:103610004046FEF741FD18B114E00220BDE8F087F6
:103620009DB1012D16D0022D19D022463B464846A9
:10363000FEF7C6FC4046FEF72FFD0C490A6822F053
:1036400001020A6000213176E8E7E1B24846FEF760
:10365000A7FCEFE7A1B24846FEF7C6FCEAE7214621
:103660004846FEF7D3FCE5E71C0F0020103C024063
:10367000074900200A68002A09DA054A054B0C3A76
:103680001360054B13600968002900DA01207047B8
:10369000103C024023016745AB89EFCD1649102845
:1036A00017D020281ED0082825D1C87840F0010066
:1036B000C870C87810F00100C8701CD0C87820F01D
:1036C0000100C870C87840F00200C8700B4808F0CC
:1036D000F9BD487840F001004870887840F001005A
:1036E000887003E0087840F001000870087900282D
:1036F00001D008F075BC704718010020E8180020C0
:10370000044910B50A68024202D00860FFF7C6FFFC
:1037100010BD0000143C01402DE9F84FDFF87CB1EA
:1037200000224FF001084FF0030A4FF00F090BF190
:10373000040E00BF0B6808FA02F42340A3426ED1C6
:103740004D68022D01D0122D0ED1D50800EB850C4D
:10375000DCF820505607F70E09FA07F6B5430E6954
:10376000BE402E43CCF82060066855000F790AFA57
:1037700005FC07F0030726EA0C06AF403743076055
:103780004E68012E05D0022E03D0112E01D0122E2C
:103790000ED18668CF6826EA0C06AF4037438760B3
:1037A0004668A6430C79C4F3001494403443446043
:1037B000C6688C6826EA0C06AC403443C4604C688A
:1037C000E40065D5364C256845F4804525602468BD
:1037D00022F0030504F480440094324C2E19D6F8EC
:1037E000084895072F0F09FA07F5AC432E4DA8425C
:1037F00001D1002524E02D4DA84201D101251FE073
:103800002B4DA84201D102251AE02A4DA84201D130
:10381000032515E0284DA84202D1042510E037E029
:10382000264DA84201D105250AE0254DA84201D127
:10383000062505E0234DA84201D1072500E0082513
:10384000BD402543C6F80858DBF800405D464E6889
:103850009C43F60300D51C432C60DEF800407546FF
:103860004E689C43B60300D51C432C600B4D0835B5
:103870002C684E689C43F60200D51C432C60074D13
:103880000C352C684E689C43B60200D51C432C6056
:10389000521C102AFFF44EAFBDE8F88F003C0140E7
:1038A0004438024000300140000002400004024061
:1038B00000080240000C02400010024000140240C8
:1038C00000180240001C02400069084000D001209E
:1038D0007047426931EA020200D1090481617047F0
:1038E0000AB1816170470904FBE700000148806864
:1038F000704700000C00002070B504001BD094F845
:103900003D00002520B984F83C50204600F042FAE2
:10391000242084F83D002068016821F00101016045
:1039200000F0A6FD4D4A6168914201D84C4900E083
:103930004C49884201D2012070BD4B492368B0FB3D
:10394000F1F15E6826F03F060E435E6063689342C5
:1039500006D94FF4967359434FF47A73B1FBF3F1E0
:103960002368491C1E6A26F03F06314319626168CC
:10397000914210D84900401EB0FBF1F2521CC2F334
:103980000B02042A01D2042022E0B0FBF1F0401C1B
:10399000C0F30B001CE0A368F3B301EBC10202EB20
:1039A0000116421EB2FBF6F2521C42F4804212058E
:1039B00049D093B301EBC10202EB0111401EB0FBF1
:1039C000F1F0401CC0F30B0040F4804040F4004094
:1039D0002168CA694CF6FF739A431043C861D4E961
:1039E0000701084321680A6822F0C00210430860FA
:1039F000D4E9030101432068826848F2FF339A4307
:103A000011438160D4E9050108432168CA6822F0A6
:103A1000FF021043C86001E00EE016E02068016874
:103A200041F0010101602564202084F83D002563F8
:103A300084F83E50002070BD01EB4106421EB2FBEF
:103A4000F6F2521CB3E70120C2E701EB4101401E30
:103A5000B0FBF1F0401CC0F30B00B7E7A0860100FB
:103A600080841E0000093D0040420F002DE9FF4FF9
:103A700083B09A46DDE9119793460446DDF840800D
:103A8000FFF734FF054694F83D00202870D1192334
:103A9000012271492046009502F0AEF80028F5D1C8
:103AA00094F83C00012863D0012084F83C00206891
:103AB0000168C90703D1016841F001010160206874
:103AC000016821F400610160222084F83D0040205B
:103AD00084F83E0000262664C4F82480A4F82A90C6
:103AE000608D20855D48E062CDE9007553465A46F9
:103AF0002046049901F09CFF00287CD1208DD0B194
:103B0000012821D00228206824D0416980690090D2
:103B1000208D032869D801282BD0514902283B4623
:103B20004FF00002009559D08846204602F064F814
:103B3000002860D13CE020684169816900910168FA
:103B400041F40071016077E02068016821F4806130
:103B50000160F0E7016821F480610160206801687C
:103B600041F400610160206841698069009063E070
:103B70006FE02A463946204602F0BDF898BB20681F
:103B80000069616A08704EE02068016841F40071C4
:103B9000016020680069616A0870606A401C6062A8
:103BA000218D491E2185618D491E6185216838E07E
:103BB0002068016821F48061016020680069616A01
:103BC0000870606A401C6062208D401E2085608DF8
:103BD000401E60853B46002241460095204602F08B
:103BE0000BF800B9D0E706E0FFE72A463946204641
:103BF00002F081F818B1012007B0BDE8F08F20680D
:103C00000069616A0870606A401C6062218D491E0B
:103C10002185618D491E618521684A69D243520719
:103C20000AD409690170606A401C6062208D401EE0
:103C30002085608D401E6085208D00287FF468AF50
:103C4000202084F83D0084F83E6084F83C60002029
:103C5000D2E70220D0E70000020010000000FFFFC2
:103C6000040001002DE9FF4F83B09A46DDE911976A
:103C700093460446DDF84080FFF738FE054694F889
:103C80003D0020287FD1192301224049204600957C
:103C900001F0B2FF002876D194F83C00012872D0E0
:103CA000012084F83C0020680168C90703D101683D
:103CB00041F0010101602068016821F400610160A8
:103CC000212084F83D00402084F83E000026266430
:103CD000C4F82480A4F82A90608D20852C48E062E6
:103CE000CDE9007553465A462046049901F014FF69
:103CF00070B930E02A463946204602F02FF858B114
:103D0000206C042804D12068016841F4007101602E
:103D1000012007B0BDE8F08F606A21680078086173
:103D2000606A401C6062218D491E89B22185628DC6
:103D3000521E628522685369DB435B070BD469B16D
:103D400000781061606A401C6062208D401E2085F2
:103D5000608D401E6085208D0028CBD12A463946D3
:103D6000204601F023FF0028CAD154F83D0B01681A
:103D700041F400710160202004F81E09E67766779F
:103D80000020C6E7FFE70220C3E7000002001000A2
:103D90000000FFFF2DE9F04387B007461421684675
:103DA000FCF758FA484C474B3A680026464812211F
:103DB000032510344FF001084FF004099A4218D13E
:103DC000026842F002020260006800F00200059002
:103DD00028028DE80301CDE9035969463B48FFF706
:103DE0009BFC206840F400102060206800F4001064
:103DF00065E0374B9A4234D1026842F020020260FB
:103E00000068CDE9005100F02000CDE90490CDE933
:103E1000028569462F48FFF77FFC206840F4800048
:103E2000206020682D4C00F4800005902A48206016
:103E30004FF0606060604020C4E902060001C4E900
:103E40000406C001A661C4E9076020466662FFF768
:103E5000DBFA08B1FEF73DF87C63A76307B0BDE865
:103E6000F0831F4B9A42F9D1026842F004020260CB
:103E7000026802F004020592026842F00102026048
:103E800000680E4600F00100059058158DE84101CC
:103E9000CDE9035969461348FFF73EFC4FF48070A3
:103EA0008DE84101CDE9035969460F48FFF734FC1D
:103EB000206840F400002060206800F400000590B5
:103EC000CCE70000005400403038024000040240BB
:103ED0000058004000140240B86002401404002062
:103EE000005C004000080240000002400248816877
:103EF00002781144816070470C0000200B4810B517
:103F0000016841F400710160016841F48061016061
:103F1000016841F480710160032000F0B5F80020D1
:103F200000F006F800F024F8002010BD003C02402C
:103F300070B50D4D04464FF47A712878B1FBF0F05E
:103F40000A490968B1FBF0F000F0F3FE48B9102C03
:103F500007D200222146501E00F076F800206C6047
:103F600070BD012070BD00000C0000201800002072
:103F70000A4808B5016841F480410160006800F416
:103F8000804000900548001F016841F080510160A9
:103F9000006800F08050009008BD000044380240E6
:103FA0002DE9F04116460F46040004D094F839007C
:103FB000002518B107E00120BDE8F08184F83850F1
:103FC000204601F085FB242084F839002068C16870
:103FD00021F40051C160204606F0E6F9206801692D
:103FE00021F4904101612068416921F02A01416179
:103FF0002068016921F00F010161206801693943DE
:1040000001612068C16821F40061C1602068C16855
:104010003143C1602068C16841F40051C160E5636B
:10402000202084F8390084F83A000020C4E70028F2
:1040300009DB00F01F02012191404009800000F1DE
:10404000E020C0F800117047F0B40E4B1B680C461E
:10405000C3F30223C3F10705042D00D90425191D5C
:10406000072901D2002300E0DB1E012606FA05F134
:10407000491E214099409E40761E16403143F0BCB7
:1040800006F03EBD0CED00E0064900F007020868AE
:104090004FF6FF03184040EA0220034A104308602D
:1040A000704700000CED00E00000FA052DE9F0413A
:1040B0008AB0040005D094F8BD032668002520B11D
:1040C00008E001200AB0BDE8F08184F8BC53204626
:1040D00000F05EF8032084F8BD03F06BC00500D447
:1040E0002561206806F01EFC04F110012822884694
:1040F0006846FCF796F894E80F0006F0EBFA022603
:10410000C8BB0021206806F035FC002001270EE026
:10411000C0EBC00104EB810181F83D7001F83C0F58
:10412000C880CD708D60CD60401CC0B24D616168AB
:104130008142EDD8002011E0C0EBC00104EB810109
:1041400081F8FD5181F8FC0181F8FF51C1F804525A
:10415000C1F80852401CC0B2C1F8105261688142D7
:10416000EAD8282241466846FCF75BF894E80F003D
:1041700006F012FB10B184F8BD63A2E784F8385052
:1041800084F8BD73206806F0FBFA00209AE700006F
:1041900010B586B0044614216846FCF75BF8206829
:1041A000B0F1A04F27D115480021026842F001026A
:1041B0000260006800F0010005904FF4C0500090CC
:1041C0000220CDE90101032003900A2004906946F2
:1041D0000B48FFF7A1FA0948001D016841F0800172
:1041E000016006481430016841F4804101600068B4
:1041F00000F48040059006B010BD00003038024049
:10420000000002402DE9F843054600684FF001091F
:10421000C1074FF0000601D1400727D5DFF80C8118
:10422000C8F86860FFF762FB0746414C05E000BF35
:10423000FFF75CFBC01B022857D820680001F7D4A9
:1042400068688101287A41EA007039498431086040
:10425000C8F86890FFF74AFB074604E0FFF746FB03
:10426000C01B022841D820680001F7D528788007B4
:1042700052D52F484030016841F0805101600068FC
:104280002C4C00F080500090206840F4807020603A
:10429000FFF72CFB074604E0FFF728FBC01B0228B2
:1042A00023D82068C005F7D5214C7034206810F45D
:1042B000407020D0A98901F4407181421BD0206850
:1042C0001D4920F44070C1F800900E602060206805
:1042D000C00710D0FFF70AFB064641F2883707E017
:1042E000FFF704FB801BB84202D90320BDE8F88326
:1042F00020688007F4D5E9680D48C1F30122083031
:10430000032A0BD0016821F4F81101602068A98903
:10431000C1F30B01084320600020E7E70268074B68
:1043200022F4F81219400A430260EFE70000474206
:104330000038024000700040400E4742FFFCFF0F73
:104340002DE9F0470E46050065D0DFF81481D8F856
:104350000000F7B200F00F00B04207D288F80070FA
:10436000D8F8000000F00F00B04254D128683D4C4E
:10437000810712D5400703D5206840F4E050206043
:104380002878000703D5206840F46040206020684A
:10439000A96820F0F000084320602878C0072DD0DD
:1043A000304968680839012812D0022813D0032840
:1043B00011D00968890700292DDA216821F003014D
:1043C00001432160FFF792FA814641F2883A0EE0FC
:1043D00009688903EFE709688901ECE7FFF786FAC6
:1043E000A0EB0901514502D90320BDE8F087206800
:1043F000696800F00C00B0EB810FEFD1D8F8001025
:10440000404601F00F01B14207D90770006800F083
:104410000F00B04201D00120E7E72878400705D51A
:104420002068E96820F4E0500843206028780007FD
:1044300006D52068296920F4604040EAC100206068
:1044400000F036F82168084AC1F30311515CC840F6
:10445000064908600020FFF76BFD0020C5E700005B
:10446000003C0240083802403EC40008180000200A
:104470000448054900680968044AC1F38221515C77
:10448000C840704718000020083802404EC4000899
:104490000448054900680968044AC1F34231515C87
:1044A000C840704718000020083802404EC4000879
:1044B000154810B5006810F00C02144813D01449C8
:1044C000042A0FD0082A0ED10F4C241F226823681B
:1044D00002F03F025B0207D52068C0F38810A0FB02
:1044E000010106E0084610BD2168C1F38811A1FB57
:1044F00000010023FBF764FE2168C1F30141491C60
:104500004900B0FBF1F010BD083802400024F4006F
:10451000001BB7002DE9F84F050076D02878DFF8AA
:10452000F8B2BE4CC00749D0DBF800105846C1F3C2
:104530008101012908D00068C0F3810002280AD156
:10454000201D0068400206D52068800336D56868C3
:104550000028E2D032E06868B0F5803F10D0B0F5B6
:10456000A02F206810D020F480302060206820F434
:10457000802020606868A0B1FFF7B8F906460CE01B
:10458000206840F48030F4E740F480202060F7E7B2
:10459000FFF7ACF9801B642873D820688003F7D537
:1045A0000CE0FFF7A3F9064605E000BFFFF79EF910
:1045B000801B6428F0D820688003F7D42878DFF8BF
:1045C000608280074FF000093ED5DBF800105846A6
:1045D00011F00C0F09D00068C0F3810002280BD144
:1045E0008D48001F0068400206D42068800715D55A
:1045F000E868012809D111E0E868B8B10120C8F8DD
:104600000000FFF773F9064605E002E1FFF76EF9D7
:10461000801B0228C0D820688007F7D52068296948
:1046200020F0F80040EAC10020600DE0C8F80090DA
:10463000FFF75CF9064604E0FFF758F9801B0228F3
:104640001FD820688007F7D42878000722D5724E3B
:10465000744869696C3671B101210160FFF746F950
:10466000074604E0FFF742F9C01B022809D830686A
:104670008007F7D50EE0C0F80090FFF737F907463E
:1046800005E083E0FFF732F9C01B02287ED83068CE
:104690008007F7D42878400768D5DFF87CA1002789
:1046A0000AF1380ADAF80000C0000BD4DAF800107A
:1046B00041F08051CAF80010DAF80000012700F03C
:1046C00080500090584E3068C00510D4306840F4D7
:1046D00080703060FFF70AF9009005E0FFF706F9F7
:1046E0000099401A022851D83068C005F6D54A4EC4
:1046F000A868683601280FD00528306810D020F04F
:1047000001003060306820F004003060A868B8B163
:10471000FFF7ECF800900FE0306840F00100F4E79C
:1047200040F004003060F7E7FFF7E0F80099411A25
:1047300041F28830814264D830688007F4D50EE0B9
:10474000FFF7D4F8009007E0FFF7D0F80099411A7E
:1047500041F28830814254D830688007F4D42FB1B8
:10476000DAF8001021F08051CAF80010A869C0B32F
:10477000DBF80010C1F3810102294AD00228484623
:1047800007D0C8F86000FFF7B1F800E039E005464F
:104790003AE04746C8F86000FFF7A8F8064604E08C
:1047A000FFF7A4F8801B02282BD820688001F7D4DB
:1047B000D5E907010843A96A1C4A490802EB0141EF
:1047C0006A6A41EA8211084395F82C1040EA0161B7
:1047D0001148001F016001203866FFF787F8054681
:1047E00005E014E0FFF782F8401B022809D8206892
:1047F0008001F7D50BE000BFFFF778F8401B0228D7
:1048000002D90320BDE8F88F20688001F4D400208D
:10481000F8E70120F6E700000838024000380240BF
:1048200000004742800E4742007000400000FFFF3A
:1048300070B5040003D06079002510B105E00120B7
:1048400070BD2571204600F00DF8022060712068CF
:10485000016841F00401016001206071A560002041
:1048600070BD000008B500680649884208D10648B6
:10487000016841F040010160006800F040000090D4
:1048800008BD0000000806503438024070B504002E
:1048900002D0607F10B106E0012070BD00202077BB
:1048A000204600F049F8022060772168CA2048625B
:1048B000216853204862204603F0BEFBFF250426F2
:1048C00018BB206881681B4A114081602168886894
:1048D00062681043D4E904231A43104388602168B6
:1048E000E068086120680169228941EA02410161AA
:1048F0002068C16821F08001C1602068806880065E
:1049000007D4204600F024F818B120684562667785
:10491000C2E72068016C21F4802101642068016CE9
:10492000A26911430164206845620120607700207C
:1049300070BD0000BFFF8FFF00680349884202D1AD
:104940000249012008607047002800403C0E4742A1
:1049500070B504460068C16821F0A001C160FEF78F
:10496000C5FF05464FF47A7607E000BFFEF7BEFFAD
:10497000401BB04201D9032070BD2068C06880068A
:10498000F4D5002070BD70B5040005D00025A562E7
:1049900094F8510010B106E0012070BD84F8505029
:1049A000204600F031F8022084F8510020680168A8
:1049B00021F040010160D4E901010843D4E9031268
:1049C0001143084361690843218B01F400710843D6
:1049D000E1690843216A0843A16A08432168086025
:1049E000A069042101EA1040616A08432168486017
:1049F0002068C16921F40061C1616565012084F806
:104A00005100002070BD00002DE9F04786B005463A
:104A100014216846FBF71EFCDFF818C129684648D8
:104A20000226012703220523DFF8108100246145B7
:104A300060D141491431D1F800C04CF4805CC1F818
:104A400000C0096801F480510591016841F002013C
:104A50000160016801F002010591016841F0010166
:104A600001600068914600F00100059018209A4608
:104A70008DE8C10669464046FEF74EFE80208DE86F
:104A8000C10669462E48FEF747FE2F4E2D484FF0CF
:104A9000C0673060C6E901744FF48068C6E9034816
:104AA00074617812B461C6E9074030467462FEF75B
:104AB000ABFC08B1FDF70DFAEE64B563224E214858
:104AC00060364830E6E802074020A6E81101C0023F
:104AD00046F81449B461C6E907401B487462603067
:104AE000FEF792FC08B1FDF7F4F9AE64B56306B0C9
:104AF000BDE8F087154CA142F9D10F4910310C687F
:104B000044F480440C60096801F480410591016817
:104B100041F0020101600068694600F00200059062
:104B20004FF460408DE8C1004046CDE90323FEF715
:104B3000F3FDDCE700300140303802400004024061
:104B4000000002401064024054050020003800407C
:104B50002DE9F84F044690F8500000270A9E1D46A4
:104B600092468B464FF0010901280ED0012084F8AF
:104B70005000FEF7BBFE804694F8510061680128A2
:104B80000CD0B1F5827F07D102E00220BDE8F88F9A
:104B9000A16809B9042801D00227C2E0BBF1000FC7
:104BA00027D0BAF1000F24D01DB394F85100042887
:104BB00002D0052084F8510000206065C4F838A0B8
:104BC000E587A587C4F830B0E586A58620646064D3
:104BD00020680168490603D4016841F04001016082
:104BE000E068B0F5006F606805D0E8B3012D46D0ED
:104BF0007FE0012795E008B1012D39D1206B2168B4
:104C00000088C860206B801C2063E08E401EE08618
:104C10002EE02068816889070FD5E18E69B1B9F16E
:104C2000010F0AD1216B0988C160206B801C2063B1
:104C3000E08E401EE0864FF0000920688168C907B9
:104C40000CD0E18F51B1C068A16B0880A06B801CB3
:104C5000A063E08F401EE0874FF00109FEF746FE9B
:104C6000A0EB0800B04200E009E001D3701C50D175
:104C7000E08E0028CDD1E08F0028CAD13FE0206B24
:104C8000216800780873206B401C2063E08E401E72
:104C9000E0862EE02068816889070FD5E18E69B132
:104CA000B9F1010F0AD1216B09780173206B401C07
:104CB0002063E08E401EE0864FF000092068816886
:104CC000C9070CD0E18F51B1C068A16B0870A06B0F
:104CD000401CA063E08F401EE0874FF00109FEF703
:104CE00005FEA0EB0800B04202D3701C01D010E01A
:104CF0007EB1E08E0028CDD1E08F0028CAD1424697
:104D00003146204604F054FC28B10127202060657C
:104D100007E0032705E0A06818B92068C16880682B
:104D20000090012084F85100002084F8500038469B
:104D30002CE710B5401EB0F1807F01D3012010BDDB
:104D40004FF0E02460610F21601705F0D9FE0020CC
:104D5000A06107202061002010BD7047704710B58A
:104D600090F83C20012A22D0012280F83C20CA6819
:104D70008C6822F4407222434C6822F48062224301
:104D80000C6822F4006222430C6922F48052224310
:104D90004C6922F400522243C969002322F4804264
:104DA0000A4301684A6480F83C30002010BD0220AC
:104DB00010BD70B590F83C20012A19D0012400F8EC
:104DC0003C4F0222427050F83C3C5A689D6822F0E9
:104DD00070060A684968324325F0800529435A6005
:104DE00050F83C2C9160447000210170084670BD61
:104DF000022070BD10B5040003D094F83D0010B13E
:104E000007E0012010BD002084F83C00204600F09F
:104E10000DF8022084F83D00211D206805F066F899
:104E2000012084F83D00002010BD000008B5016895
:104E30003B483C4A814205D1106840F001001060B7
:104E4000106812E03748001FB1F1804F08D0364B90
:104E500099420ED1016841F00201016000683BE017
:104E6000016841F001010160006800F0010000905C
:104E700008BD2E4B994207D1016841F00401016041
:104E8000006800F00400F2E7294B994207D101685D
:104E900041F008010160006800F00800E7E7254BD9
:104EA000994211D1016841F01001016000680022AF
:104EB00000F01000009011463620FFF7C5F8BDE85D
:104EC00008403620FFF7B3B81B4B994207D1106852
:104ED00040F002001060106800F00200C7E7174BB6
:104EE000994207D1106840F400301060106800F457
:104EF0000030BCE7124A914207D1016841F04001FD
:104F00000160006800F04000B1E70E4A9142AFD165
:104F1000016841F480710160006800F48070A6E7C8
:104F200000000140443802400004004000080040F6
:104F3000000C00400010004000040140004401400B
:104F40000018004000200040022180F83D10016858
:104F50008A6802F00702062A03D00A6842F00102BA
:104F60000A60012180F83D10002070470168CA687E
:104F700042F00102CA600068816801F00701062959
:104F800003D0016841F0010101600020704770B555
:104F9000044690F83C00012817D0012584F83C50C5
:104FA000022084F83D002068826822F0770222F413
:104FB0007F4282600868502830D00DDC20284DD018
:104FC00005DC98B310283BD148E0022070BD3028A2
:104FD00044D0402834D139E0602828D0702806D049
:104FE000B0F5805F2CD0B0F5005F29D10AE0CB6826
:104FF000D1E90121206804F0EAFF2068816841F0CE
:10500000770109E0CB68D1E90121206804F0DFFFD6
:105010002068816841F48041816011E0CA68496874
:10502000206805F0A9F85021206807E016E0CA685A
:105030004968206805F0B1F86021206804F0D1FFCC
:1050400084F83D50002084F83C0070BDCA6849686F
:10505000206805F091F840212068EFE722680146BA
:105060001046EBE7704770B50446006801694FF0E1
:105070000005C943890715D4C168C943890711D4FC
:10508000E91E0161012020772068806980072046A1
:1050900002D0FFF7E7FF04E000F0B4F9204600F08B
:1050A00036FA257720680169C943490717D4C168D2
:1050B000C943490713D46FF004010161022020772E
:1050C0002068806910F4407F204602D0FFF7CAFFB5
:1050D00004E000F097F9204600F019FA25772068DF
:1050E0000169C943090716D4C168C943090712D425
:1050F0006FF008010161042020772068C0698007F3
:10510000204602D0FFF7AEFF04E000F07BF9204616
:1051100000F0FDF9257720680169C943C90617D455
:10512000C168C943C90613D46FF01001016108209A
:1051300020772068C06910F4407F204602D0FFF736
:1051400091FF04E000F05EF9204600F0E0F92577D9
:1051500020680169C943C90708D1C168C943C907A3
:1051600004D1891E0161204600F0F4F9206801692C
:10517000C943090609D4C168C943090605D46FF0BB
:10518000800101612046FFF7E8FD20680169C943FD
:10519000490609D4C168C943490605D46FF04001E6
:1051A0000161204600F0D8F920680169C9438906E9
:1051B0000BD4C168C943890607D46FF0200101618F
:1051C0002046BDE87040FFF7C9BD70BD2DE9F04332
:1051D00087B0044614216846FBF73CF879482268FA
:1051E0000025794902240126824210D1086840F046
:1051F000100008600868694600F0100005904FF440
:10520000D4408DE85100CDE90346704856E0DFF800
:10521000C081B2F1804F41D06E48DFF8BC91402789
:10522000824250D1086840F004000860086800F02D
:1052300004000590086840F001000860086800F06C
:1052400001000590086840F002000860086869469F
:1052500000F00200059090158DE8510003944E4631
:1052600048460494FEF758FA80208DE83100CDE9D5
:10527000035469463046FEF74FFA0097CDE90145E1
:10528000CDE9035469464046FEF746FA0094CDE95D
:105290000145CDE90354694650480FE0086840F0E5
:1052A000010008600868694600F00100059048F2B6
:1052B0000E008DE83100CDE903564046FEF72CFA8A
:1052C00007B0BDE8F08346484FF0030882421AD188
:1052D000086840F0080008600868694600F00800A7
:1052E00005904FF430408DE83100CDE903543D4D39
:1052F0002846FEF711FA4FF480408DE851016946C7
:1053000028460494DAE7384B38489A420ED10A68A6
:1053100042F080020A60096801F0800105914FF4B3
:10532000E0518DE852000394049448E0304B9A42D7
:1053300020D1086840F480700860086800F480702C
:105340000590086840F00400086008680097CDE9FF
:10535000014600F00400CDE9048069460394254825
:10536000FEF7DAF90097CDE90146CDE90348694631
:105370004846A3E7204B9A420FD1086840F020002E
:10538000086008680097CDE9014600F02000CDE9EB
:10539000048069460394194890E7194B9A428FD1CB
:1053A0000A6842F080020A60096801F080010591F4
:1053B0004FF410718DE832000921CDE9035169469F
:1053C0007CE700000000014030380240001002403D
:1053D00000000240000400400008024000040240B7
:1053E00000080040000C0240000C0040001C02407D
:1053F000000401400020024000440140001402402B
:1054000000180040704770B5044690F83C000D4607
:1054100001280DD0012684F83C60022084F83D006C
:1054200042B1042A18D0082A2AD00C2A4DD139E0DA
:10543000022070BD206804F0DDFD2068816941F024
:10544000080181612068816921F00401816120687F
:1054500081692A69114311E0206804F0FBFD20688E
:10546000816941F4006181612068816921F4806172
:105470008161206881692A6941EA0221816124E011
:10548000206804F01DFE2068C16941F00801C16177
:105490002068C16921F00401C1612068C1692A69DD
:1054A000114311E0206804F03FFE2068C16941F417
:1054B0000061C1612068C16921F48061C161206817
:1054C000C1692A6941EA0221C16184F83D60002076
:1054D00084F83C0070BD10B5040003D094F83D0082
:1054E00010B107E0012010BD002084F83C002046E8
:1054F00000F00CF8022084F83D00211D206804F023
:10550000F5FC012084F83D00002010BD7047704775
:1055100010B504460068012204F04CFD0B492068D8
:10552000884202D00A49884203D1416C41F40041CB
:1055300041642068816801F00701062903D00168F1
:1055400041F001010160002010BD00000000014099
:105550000004014000F044BA7047704770B502681B
:1055600004461068D168536910F00F0F50D003F053
:10557000010501F4907635435DD0C20705D0CA0518
:1055800003D5E26B42F00102E263420705D5DA0778
:1055900003D0E26B42F00202E263820705D5DA072C
:1055A00003D0E26B42F00402E263020705D5DA079A
:1055B00003D0E26B42F00802E263E26B002A33D0D0
:1055C000800604D5880602D5204604F0A1FE206896
:1055D0004069E16BC0F38010090700D428B320466E
:1055E00004F066FE2068416949061AD5416921F038
:1055F00040014161606BA0B11B490165606BFDF723
:1056000021FE002810D0606B016DBDE87040084796
:10561000830610D58B060ED52046BDE8704004F0F9
:1056200077BE2046FFF799FF70BD2046FFF795FF34
:105630000020E06370BD030606D50B0604D52046A6
:10564000BDE8704005F006B84006F3D54806F1D530
:10565000D168204621F04001D160202184F8391022
:1056600000F0BCF970BD0000A1A2000870B50400F4
:1056700004D094F83900002510B106E0012070BD77
:1056800084F83850204600F023F8242084F83900AC
:105690002068C16821F40051C160204604F084FEF6
:1056A0002068016921F4904101612068416921F07D
:1056B0002A0141612068C16841F40051C160E5637D
:1056C000202084F8390084F83A00002070BD0000E2
:1056D0002DE9F04F87B0044614216846FAF7BAFD69
:1056E000964895492368954A10380327DFF850E219
:1056F00000254FF002084FF0080A8B422FD11168A5
:1057000041F480111160116801F480110591016864
:1057100041F004010160016801F004010591016894
:1057200041F0080101600068029500F00800059052
:105730009014CDE90008CDE9037A544669467046D5
:10574000FDF7EAFF0420CDE900080295CDE90374D6
:1057500069467C48FDF7E0FF07B0BDE8F08FDFF851
:10576000E8C1DFF8D89101218E0209F104094FF058
:10577000070B634547D1D9F8003043F01003C9F84F
:105780000030D9F8002002F010020592026842F0C1
:1057900002020260026802F002020592026842F010
:1057A0000102026000688A4600F001000590802036
:1057B0008DE80105CDE9037BD94669466348FDF7CD
:1057C000ABFF70108DE80105CDE9037969466048AB
:1057D000FDF7A2FF604F5F4807F1080238607004D0
:1057E0007860402082E861007D618002BD61C7E988
:1057F000075038467D62FDF707FE08B1FCF769FBEC
:105800002763BC63A8E7DFF854C1634539D1136847
:1058100043F480231360126802F480220592026828
:1058200042F004020260006802AB00F00400059040
:1058300083E882084FF44060CDE90008694670466D
:10584000FDF76AFF444F4648603738604FF000600C
:10585000C7E90105C7E90356C0147D61C7E90650D1
:105860003D6238467D62FDF7CFFD08B1FCF731FBA4
:105870006763002211462720BC63FEF7E5FB272063
:1058800056E0384A9342BDD1D9F8003043F02003A6
:10589000C9F80030D9F8002002F020020592026811
:1058A00042F040020260006802AA00F04000059049
:1058B00082E882044FF48440CDE9000869462A4812
:1058C000FDF72AFF244F2348C037903838604FF047
:1058D0002068C7E90185C7E903567D614FF40030B0
:1058E000BD61C7E9075038467D62FDF78DFD08B1FF
:1058F000FCF7EFFA6763BC6316481C4F1838E7E8FB
:105900000208402061C7800247F81459BD61C7E909
:10591000075016487D62FDF777FD08B1FCF7D9FA0C
:105920002763002205214720BC63FEF78DFB47203B
:10593000FEF77DFB10E700000050004040380240B9
:1059400000080240000C0240001001400004024028
:1059500000000240B8640240940900200048004062
:10596000286002400014014000180240B40A0020E0
:1059700018480188C1F30A0217490A804278D308FF
:10598000827843EA4213C3F30A034B80C378920937
:1059900042EA8303027943EA8223C3F30A038B803A
:1059A0005308427943EAC213C3F30A03CB80930935
:1059B0000B72C2F301124A72C2884A8102898A813B
:1059C0004289CA81027B0A74427B4A74C089488238
:1059D00070470000801D0020921D002070470000CD
:1059E00010B5054C01202168486204F0F7FB2068DF
:1059F000406A0249088010BD54080020F0010020D0
:105A0000FEE701684A69D24352050FD46FF4806201
:105A10004A61002140F8301F2022427381730269DD
:105A200042F00402026101730120704700207047B8
:105A30002DE9F84F0446006889460B9D0168984699
:105A4000174641F4806101602068016841F480716B
:105A5000016000954FF0011A0022514620460A9B32
:105A600000F0CAF8002853D1216809F0FE0008614F
:105A70000AF1010B2B46594620460A9A00F0F0F82D
:105A8000F0BB20684169806900902A4620460A9947
:105A900000F064F940B1206C042839D12068016815
:105AA00041F40071016033E0FEB2B8F1010F09D09A
:105AB0002168380A08612A4620460A9900F04EF902
:105AC0000028E8D1206806612A4620460A9900F09D
:105AD00045F90028DFD12068016841F48071016038
