:020000040800F2
:10000000B00500209D0100089F120008D9100008CB
:100010009D120008A90200082D160008000000002B
:10002000000000000000000000000000A312000813
:10003000F502000800000000A1120008A512000847
:10004000B7010008B7010008B7010008B7010008B0
:10005000B7010008B7010008B7010008B7010008A0
:10006000B7010008B7010008B7010008B701000890
:10007000B7010008B7010008B7010008B701000880
:10008000B7010008B7010008B7010008B701000870
:10009000B7010008B7010008B7010008B701000860
:1000A000B7010008B7010008B7010008B701000850
:1000B000B7010008B7010008B7010008B701000840
:1000C000B7010008B7010008B7010008B701000830
:1000D000B7010008B7010008B7010008B701000820
:1000E000B7010008B7010008B7010008B701000810
:1000F000B7010008B7010008B7010008B701000800
:10010000B7010008B7010008B7010008B7010008EF
:10011000B7010008B7010008B7010008B7010008DF
:10012000B7010008B7010008B7010008B7010008CF
:10013000B7010008B7010008B7010008B7010008BF
:10014000B7010008B7010008B7010008B7010008AF
:10015000B7010008B7010008B7010008B70100089F
:10016000B7010008B7010008B7010008B70100088F
:10017000B7010008B7010008B7010008000000003F
:10018000B7010008B7010008DFF80CD000F07AF8DA
:1001900000480047C5160008B00500200648804703
:1001A00006480047FEE7FEE7FEE7FEE7FEE7FEE75C
:1001B000FEE7FEE7FEE7FEE72D13000889010008D1
:1001C0002DE9F05F0546002092469B46884606468C
:1001D000814640241BE0284641464746224600F01F
:1001E00041F853465A46C01A914110D31146184659
:1001F000224600F028F82D1A67EB01084F462246E8
:100200000120002100F01FF817EB00094E41201ECD
:10021000A4F10104DFDC484631462A464346BDE8E6
:10022000F09FD2B201E000F8012B491EFBD27047CB
:100230000022F6E710B513460A4604461946FFF7B2
:10024000F0FF204610BD202A04DB203A00FA02F11C
:10025000002070479140C2F1200320FA03F31943B4
:1002600090407047202A04DB203A21FA02F0002156
:10027000704721FA02F3D040C2F1200291400843B6
:1002800019467047064C074D06E0E06840F0010350
:1002900094E8070098471034AC42F6D3FFF778FF94
:1002A0001417000834170008FEE7000038B50E4C9C
:1002B0004FF4007525600025A560E56008252561DF
:1002C0000A4C050A25706070080AA070E170100AD7
:1002D00020716271180AA071E3716B4622460249CF
:1002E000034800F01BF838BD980100201D000020D5
:1002F000280000207047704790F82020012A07D07E
:10030000022A05D0416A41F48021416201207047F0
:10031000006842690A43426100207047F0B590F8D6
:1003200020500468A468012D05D0022D03D0416A35
:1003300041F4802153E014F0406F01D1E5004BD52A
:10034000C4F30164022C03D9416A41F4000146E080
:100350000125A5401D608D684FF4C0739DB1CE6826
:1003600035434E6845EAC605066803EB0417F551A8
:100370004FF4C275076805EB04150E697E51097DBF
:10038000012905D009E00E88CD6845EA4655EBE71E
:1003900001684E5946F480764E511179D2F80550D5
:1003A0004FF4C67641EA0525016806EB04168D5127
:1003B0001178D2F801204FF4C47541EA0221026895
:1003C00005EB04155151006803EB0411425842F04B
:1003D000010242500020F0BD416A41F40011416227
:1003E0000120F0BD10B590F82020012A07D0022A84
:1003F00005D0416A41F480214162012010BD3B4893
:10040000D0F8002242F00102C0F80022D0F8002209
:1004100022F47C52C0F80022D0F800224B6A42EA53
:100420000322C0F800220A7D02F01F0301229A4035
:10043000D0F81C329343C0F81C32CB69B3B9D0F862
:100440000C329343C0F80C328C894B6864F31F4321
:100450004C6900EBC404C4F840320C890B6864F3A7
:100460001F434C6900EBC404C4F84432CB69012B30
:1004700016D1D0F80C321343C0F80C320C884B68FC
:1004800064F31F434C6900EBC404C4F840320C8988
:10049000CB6864F31F434C6900EBC404C4F84432D6
:1004A0008B69002BD0F804320ED01343C0F804320D
:1004B0000B69002BD0F8143208D01343C0F8143263
:1004C000096A012904D008E09343EFE79343F5E775
:1004D000D0F81C121143C0F81C12D0F8001221F001
:1004E0000101C0F80012002010BD000000640040AF
:1004F00070B5040003D094F8200010B104E001208E
:1005000070BD204600F082F82068016821F00201E9
:10051000016000F0EFF90546052604E000F0EAF975
:10052000401B0A2811D8206840688007F6D420684C
:10053000016841F00101016000F0DCF905460BE0C3
:1005400000F0D8F9401B0A2806D9606A40F4003050
:10055000606284F82060D2E720684068C007EFD06E
:10056000207E0128206801683DD021F080010160D3
:10057000607E01282068016838D021F040010160C8
:10058000A07E01282068016833D021F0200101609D
:10059000E07E0128206801682ED041F01001016042
:1005A000207F01282068016829D021F0080101601E
:1005B000607F01282068016824D021F004010160D7
:1005C000D4E902010843D4E90412114308436168E5
:1005D000491E08432168C86100206062012084F838
:1005E0002000002070BD41F08001C0E741F04001D3
:1005F000C5E741F02001CAE721F01001CFE741F043
:100600000801D4E741F00401D9E700002DE9F043E7
:1006100087B0044614216846FFF70AFE2C4B2D488C
:10062000DFF8A8801968D4F800C02A4A02250326FA
:100630000927DFF8A49010300024491CC44515D1C7
:100640001960012907D1016841F00071016000685B
:1006500000F000700590106840F002001060106813
:1006600000F0020005904FF4407023E0DFF86C804A
:10067000C44528D1D0F800C04CF0806CC0F800C050
:10068000D0F800C001290CF0806CCDF814C01960BE
:1006900007D1016841F000710160006800F000704E
:1006A0000590106840F002001060106800F0020031
:1006B00005906020CDE9000502AB694683E8D000D3
:1006C000484600F039F807B0BDE8F0830064004008
:1006D0000000002030380240000402400068004062
:1006E00070B5044690F82000012804D0606A40F4F8
:1006F0000020606218E0022084F820002068016871
:1007000021F00101016000F0F5F805460EE000BFA0
:1007100000F0F0F8401B0A2808D9606A40F4003065
:100720006062052084F82000012070BD20684068C8
:10073000C007EDD1606270BD2DE9F84FDFF87CB1E4
:1007400000224FF001084FF0030A4FF00F090BF1A0
:10075000040E00BF0B6808FA02F42340A3426ED1D6
:100760004D68022D01D0122D0ED1D50800EB850C5D
:10077000DCF820505607F70E09FA07F6B5430E6964
:10078000BE402E43CCF82060066855000F790AFA67
:1007900005FC07F0030726EA0C06AF403743076065
:1007A0004E68012E05D0022E03D0112E01D0122E3C
:1007B0000ED18668CF6826EA0C06AF4037438760C3
:1007C0004668A6430C79C4F3001494403443446053
:1007D000C6688C6826EA0C06AC403443C4604C689A
:1007E000E40065D5364C256845F4804525602468CD
:1007F00022F0030504F480440094324C2E19D6F8FC
:10080000084895072F0F09FA07F5AC432E4DA8426B
:1008100001D1002524E02D4DA84201D101251FE082
:100820002B4DA84201D102251AE02A4DA84201D140
:10083000032515E0284DA84202D1042510E037E039
:10084000264DA84201D105250AE0254DA84201D137
:10085000062505E0234DA84201D1072500E0082523
:10086000BD402543C6F80858DBF800405D464E6899
:100870009C43F60300D51C432C60DEF8004075460F
:100880004E689C43B60300D51C432C600B4D0835C5
:100890002C684E689C43F60200D51C432C60074D23
:1008A0000C352C684E689C43B60200D51C432C6066
:1008B000521C102AFFF44EAFBDE8F88F003C0140F7
:1008C0004438024000300140000002400004024071
:1008D00000080240000C02400010024000140240D8
:1008E00000180240001C02400AB1816170470904EF
:1008F000FBE700000148806870470000040000200A
:100900000248816802781144816070470400002029
:100910000B4810B5016841F400710160016841F4B1
:1009200080610160016841F480710160032000F082
:100930006FF8002000F006F800F024F8002010BD49
:10094000003C024070B50D4D04464FF47A71287892
:10095000B1FBF0F00A490968B1FBF0F000F0E2FAEF
:1009600048B9102C07D200222146501E00F030F862
:1009700000206C6070BD012070BD000004000020EC
:10098000100000200A4808B5016841F48041016068
:10099000006800F4804000900548001F016841F0A5
:1009A00080510160006800F08050009008BD000098
:1009B00044380240002809DB00F01F020121914069
:1009C0004009800000F1E020C0F8001170470000ED
:1009D000F0B40E4B1B680C46C3F30223C3F10705AA
:1009E000042D00D90425191D072901D2002300E098
:1009F000DB1E012606FA05F1491E214099409E4062
:100A0000761E16403143F0BC00F011BE0CED00E044
:100A1000064900F0070208684FF6FF03184040EA55
:100A20000220034A10430860704700000CED00E00C
:100A30000000FA052DE9F0470E46050065D0DFF805
:100A40001481D8F80000F7B200F00F00B04207D2CE
:100A500088F80070D8F8000000F00F00B04254D1C0
:100A600028683D4C810712D5400703D5206840F423
:100A7000E05020602878000703D5206840F46040EB
:100A800020602068A96820F0F000084320602878E2
:100A9000C0072DD0304968680839012812D00228D3
:100AA00013D0032811D00968890700292DDA21689D
:100AB00021F0030101432160FFF71CFF814641F251
:100AC000883A0EE009688903EFE709688901ECE7D5
:100AD000FFF710FFA0EB0901514502D90320BDE843
:100AE000F0872068696800F00C00B0EB810FEFD14F
:100AF000D8F80010404601F00F01B14207D9077045
:100B0000006800F00F00B04201D00120E7E728782C
:100B1000400705D52068E96820F4E05008432060CC
:100B20002878000706D52068296920F4604040EA4B
:100B3000C100206000F036F82168084AC1F30311B3
:100B4000515CC840064908600020FFF7FBFE00200A
:100B5000C5E70000003C024008380240FA160008D1
:100B6000100000200448054900680968044AC1F3E0
:100B70008221515CC84070471000002008380240B4
:100B80000A1700080448054900680968044AC1F3C7
:100B90004231515CC84070471000002008380240C4
:100BA0000A170008154810B5006810F00C02144828
:100BB00013D01449042A0FD0082A0ED10F4C241F39
:100BC0002268236802F03F025B0207D52068C0F369
:100BD0008810A0FB010106E0084610BD2168C1F3A2
:100BE0008811A1FB00010023FFF7EAFA2168C1F395
:100BF0000141491C4900B0FBF1F010BD083802402A
:100C00000024F400001BB7002DE9F84F050076D052
:100C10002878DFF8F8B2BE4CC00749D0DBF80010E6
:100C20005846C1F38101012908D00068C0F3810052
:100C300002280AD1201D0068400206D520688003E2
:100C400036D568680028E2D032E06868B0F5803FA9
:100C500010D0B0F5A02F206810D020F48030206094
:100C6000206820F4802020606868A0B1FFF742FE71
:100C700006460CE0206840F48030F4E740F4802021
:100C80002060F7E7FFF736FE801B642873D82068E2
:100C90008003F7D50CE0FFF72DFE064605E000BF08
:100CA000FFF728FE801B6428F0D820688003F7D463
:100CB0002878DFF8608280074FF000093ED5DBF826
:100CC0000010584611F00C0F09D00068C0F38100E5
:100CD00002280BD18D48001F0068400206D420680E
:100CE000800715D5E868012809D111E0E868B8B196
:100CF0000120C8F80000FFF7FDFD064605E002E10F
:100D0000FFF7F8FD801B0228C0D820688007F7D5C0
:100D10002068296920F0F80040EAC10020600DE059
:100D2000C8F80090FFF7E6FD064604E0FFF7E2FD95
:100D3000801B02281FD820688007F7D42878000776
:100D400022D5724E744869696C3671B10121016017
:100D5000FFF7D0FD074604E0FFF7CCFDC01B0228DB
:100D600009D830688007F7D50EE0C0F80090FFF78B
:100D7000C1FD074605E083E0FFF7BCFDC01B02286C
:100D80007ED830688007F7D42878400768D5DFF828
:100D90007CA100270AF1380ADAF80000C0000BD461
:100DA000DAF8001041F08051CAF80010DAF80000BB
:100DB000012700F080500090584E3068C00510D4D4
:100DC000306840F480703060FFF794FD009005E0DB
:100DD000FFF790FD0099401A022851D83068C005ED
:100DE000F6D54A4EA868683601280FD00528306825
:100DF00010D020F001003060306820F00400306036
:100E0000A868B8B1FFF776FD00900FE0306840F0B9
:100E10000100F4E740F004003060F7E7FFF76AFDF7
:100E20000099411A41F28830814264D830688007C5
:100E3000F4D50EE0FFF75EFD009007E0FFF75AFDE6
:100E40000099411A41F28830814254D830688007B5
:100E5000F4D42FB1DAF8001021F08051CAF8001054
:100E6000A869C0B3DBF80010C1F3810102294AD0A0
:100E70000228484607D0C8F86000FFF73BFD00E0B5
:100E800039E005463AE04746C8F86000FFF732FD12
:100E9000064604E0FFF72EFD801B02282BD82068B1
:100EA0008001F7D4D5E907010843A96A1C4A49081B
:100EB00002EB01416A6A41EA8211084395F82C105D
:100EC00040EA01611148001F016001203866FFF708
:100ED00011FD054605E014E0FFF70CFD401B02285C
:100EE00009D820688001F7D50BE000BFFFF702FDAD
:100EF000401B022802D90320BDE8F88F206880013A
:100F0000F4D40020F8E70120F6E70000083802409A
:100F10000038024000004742800E47420070004007
:100F20000000FFFF10B5401EB0F1807F01D301200B
:100F300010BD4FF0E02460610F21601700F077FBD7
:100F40000020A06107202061002010BD70B50400C2
:100F500004D094F83900002510B106E0012070BDDE
:100F600084F83850204600F023F8242084F8390013
:100F70002068C16821F40051C160204600F000FAE9
:100F80002068016921F4904101612068416921F0E4
:100F90002A0141612068C16841F40051C160E563E4
:100FA000202084F8390084F83A00002070BD000049
:100FB000F0B587B0044614216846FFF739F93F4879
:100FC0003D4B22683D49143802240125032607279A
:100FD0009A422CD10A6842F010020A60096801F0B6
:100FE00010010591016841F002010160016801F002
:100FF00002010591016841F0010101600068694644
:1010000000F00100059080208DE8F1002C48FFF7EA
:1010100093FB20028DE8F10069462A48FFF78CFB1C
:10102000002211462520FFF7D3FC252040E0264B67
:101030009A421AD12149091F0A6842F400320A6013
:10104000096801F400310591016841F0080101606F
:101050000068694600F00800059060208DE8F10006
:101060001A48FFF769FB07B0F0BD194B9A42FAD155
:101070000A6842F020020A60096801F02001059127
:10108000016841F0400101600068694600F04000DD
:1010900005904FF484408DE87100082004900D48BD
:1010A000FFF74AFB002211464720FFF791FC47203B
:1010B000FFF780FCD7E700000010014044380240F1
:1010C000000402400000024000440040000C0240C6
:1010D0000014014000180240FEE700000F4810B560
:1010E0000D4901600321416000214FF4102281600D
:1010F000C0E903124FF40012426101764176817615
:10110000C17601774177FFF7F3F9002803D0BDE8F6
:101110001040FFF7F0B810BD006400402800002028
:101120000F4810B50D4901600321416000214FF4C3
:1011300010228160C0E903124FF40012426101766F
:1011400041768176C17601774177FFF7D1F90028A2
:1011500003D0BDE81040FFF7CEB810BD00680040D6
:101160005000002030B587B014216846FFF760F8C2
:101170001E48016841F002010160016801F00201AE
:101180000591016841F040010160016801F04001F2
:101190000591016841F001010160016801F0010160
:1011A0000591016841F008010160016801F0080142
:1011B0000591016841F08001016000680C4D00F06C
:1011C00080004FF4E0540590012221462846FFF7A5
:1011D0008BFB01210220CDE90210CDE900416946D7
:1011E0002846FFF7A9FA07B030BD000030380240AA
:1011F000001C02400C4810B50A4901604FF4E1316F
:101200004160002181600C22C160C0E9041281614B
:10121000C161FFF79BFE002803D0BDE81040FFF737
:101220006AB810BD00100140780000200C4810B5CD
:101230000A4901604FF4E1314160002181600C22D4
:10124000C160C0E904128161C161FFF77FFE00281F
:1012500003D0BDE81040FFF74EB810BD0044004079
:10126000B80000200C4810B50A4901604FF4E13184
:101270004160002181600C22C160C0E904128161DB
:10128000C161FFF763FE002803D0BDE81040FFF7FF
:1012900032B810BD00140140F8000020FEE770478E
:1012A00070477047FFF72CBB30B593B030216846CC
:1012B000FEF7BEFF14210CA8FEF7BAFF194800255F
:1012C000016841F080510160006800F08050119089
:1012D0001548016841F4804101600068022400F46F
:1012E0008040119001200090000401908001CDE920
:1012F000064006200890A820CDE9090404200B90A0
:101300006846FFF781FC0CA90F2081E831004FF4FB
:10131000A0500F90E002109005210CA8FFF78AFB67
:1013200013B030BD403802400070004010480168E2
:1013300041F4700101600F48016841F00101016052
:101340000C4A00210832116002680B4B1A400260FF
:10135000031D0A4A1A60026822F4802202600548CE
:101360000C3001600249580680390860704700005F
:1013700088ED00E000380240FFFFF6FE1030002448
:101380002DE9F041044600680169E26821F440510A
:10139000114301612169A068E26908436169114351
:1013A00022680843D16849F20C6399430143D16034
:1013B00020684169A26921F4407111434161E269E9
:1013C0006425B2F5004F9748974922684FF03208DC
:1013D0003FD08A4201D082427CD1FFF7D3FB00EBA1
:1013E000C00101EB001061688900B0FBF1F6FFF766
:1013F000C9FB00EBC00101EB001061688900B0FB84
:10140000F1F0B0FBF5F06FF01801484306EB8001F6
:1014100008EB0110B0FBF5F000F0F006FFF7B2FBAF
:1014200000EBC00101EB001061688900B0FBF1F036
:10143000B0FBF5F006EB0016FFF7A4FB00EBC001D4
:1014400001EB001061688900B0FBF1F7FFF79AFB30
:10145000D2E08A4201D082423DD1FFF793FB00EBFC
:10146000C00101EB001061684900B0FBF1F0B0FB76
:10147000F5F00601FFF786FB00EBC00101EB001061
:1014800061684900B0FBF1F7FFF77CFB00EBC0019E
:1014900001EB001061684900B0FBF1F0B0FBF5F022
:1014A0006FF01801484307EB800108EBC100B0FB67
:1014B000F5F000F0F80006EB4006FFF763FB00EBE9
:1014C000C00101EB001061684900B0FBF1F7FFF7C4
:1014D00059FB3CE055E0FFF745FB00EBC00101EB99
:1014E000001061684900B0FBF1F0B0FBF5F00601B7
:1014F000FFF738FB00EBC00101EB00106168490009
:10150000B0FBF1F7FFF72EFB00EBC00101EB001081
:1015100061684900B0FBF1F0B0FBF5F06FF0180125
:10152000484307EB800108EBC100B0FBF5F000F089
:10153000F80006EB4006FFF715FB00EBC00101EBDE
:10154000001061684900B0FBF1F7FFF70BFB00EBFF
:10155000C00101EB001061684900B0FBF1F0B0FB85
:10156000F5F06FF01801484307EB800108EBC1006C
:10157000B0FBF5F000F00700216830448860BDE85A
:10158000F081FFF7EFFA00EBC00101EB001061689A
:101590008900B0FBF1F6FFF7E5FA00EBC00101EBC3
:1015A000001061688900B0FBF1F0B0FBF5F06FF05E
:1015B0001801484306EB800108EB0110B0FBF5F081
:1015C00000F0F006FFF7CEFA00EBC00101EB0010CF
:1015D00061688900B0FBF1F0B0FBF5F006EB001696
:1015E000FFF7C0FA00EBC00101EB00106168890051
:1015F000B0FBF1F7FFF7B6FA00EBC00101EB00100A
:1016000061688900B0FBF1F0B0FBF5F06FF01801F4
:10161000484307EB800108EB0110B0FBF5F000F048
:101620000F00A9E70014014000100140FEE7090780
:10163000090E002804DB00F1E02080F80014704758
:1016400000F00F0000F1E02080F8141D704702E068
:1016500008C8121F08C1002AFAD17047704700203D
:1016600001E001C1121F002AFBD1704700B58BB009
:1016700000200121CDE9060108910090019002901F
:1016800003900590049069460C48FEF7ABFE0B48AA
:10169000FFF726F802210948FEF72EFE0E200990DA
:1016A000059069460648FEF79DFE0548FFF718F8C5
:1016B00002210348FEF720FE0BB000BD28000020E9
:1016C00050000020FFF724F9FFF7EEFDFFF74AFD79
:1016D000FFF790FDFFF7C6FDFFF700FDFFF720FDC8
:1016E000FFF7A4FDFFF7C2FF4FF47A7423461A46B2
:1016F00011460846FEF7DAFDF8E70000000000009A
:1017000000000102030406070809000000000102AE
:101710000304000034170008000000202800000027
:101720004E1600085C1700082800002088050000FD
:101730005E1600080000000001000000100000001C
:10174000000000000024F400000000000000000081
:0C1750000000000000000000000000008D
:040000050800018965
:00000001FF
